:020000040000fa
:10000000f0ff0320bd210000232c0000af2e0000d4
:10001000e3340000133600003f370000000000000a
:10002000000000000000000000000000332100007c
:10003000273000000000000033210000b13600002e
:100040003321000033210000332100003321000060
:100050003321000033210000332100003321000050
:100060003321000033210000332100003321000040
:100070003321000033210000332100003321000030
:100080003321000033210000332100003321000020
:100090003321000033210000332100003321000010
:1000a0003321000033210000332100001536000009
:1000b00033210000332100003321000033210000f0
:1000c00033210000332100003321000033210000e0
:1000d00033210000332100003321000033210000d0
:1000e0003321000033210000000000000000000068
:1000f00000000000332100006d2a00006d2a00007e
:100100006d2a00006d2a0000332100003321000019
:10011000332100003321000033210000332100008f
:10012000332100003321000033210000332100007f
:100130003321000033210000fd280000fd280000cd
:10014000fd280000fd2800003321000033210000bd
:1001500033210000332100000000000000000000f7
:10016000000000000000000000000000000000008f
:1001700000000000000000003321000033210000d7
:10018000332100003321000033210000332100001f
:100190000000000033210000332100003321000063
:1001a00033210000332100003321000033210000ff
:1001b00033210000332100003321000033210000ef
:1001c00033210000332100003321000033210000df
:1001d00033210000332100003321000033210000cf
:1001e00033210000332100003321000033210000bf
:1001f00033210000332100003321000033210000af
:100200003321000000000000000000003321000046
:10021000332100003321000033210000332100008e
:10022000332100003321000033210000332100007e
:10023000332100003321000033210000332100006e
:10024000332100003321000033210000332100005e
:10025000332100003321000033210000332100004e
:020000040000fa
:10026000f8b500bff8bc08bc9e467047d53000000a
:10027000f8b500bff8bc08bc9e467047b13000001e
:020000040000fa
:08028000c409000001000000a8
:020000040000fa
:1002880030b585b0ac4b1b780f2b00f25281dfe8fc
:1002980013f01000220034009f004401460059006a
:1002a8006d008d003401b100d100f2001301860108
:1002b8004701a24b1b78002b00f03b81a04c002388
:1002c800237003f017f820709e4803f0b3f99a4b97
:1002d80001221a702de19a4b1b78002b00f029811e
:1002e800974c0023237002f0edfc2070964803f031
:1002f800a1f9914b02221a701be1914b1b78002b3c
:1003080000f017818e4c0023237002f0f3ff207059
:100318008e4803f08ff9884b05221a7009e1884b43
:100328001b78002b00f00581854c002323701221d7
:10033800874802f0b1f92070834803f07bf97e4bbf
:1003480006221a707e4b1b78002b00f0f2807c4c42
:10035800002323707f4b187802f0b0fb20707e4892
:1003680003f068f9744b07221a70e2e0744b1b78ab
:10037800002b00f0de80724d00232b70714c04f1cd
:10038800440393e8030001908df8081001a803f0d6
:100398001dfbc1b201a802f0b5f9287004f14c00a8
:1003a80003f048f9644b08221a70c2e0644b1b78ca
:1003b800002b00f0be80624c0023237002f0fcfc8e
:1003c8002070664803f036f95b4b03221a70b0e0e0
:1003d8005b4b1b78002b00f0ac80594c002323703a
:1003e80002f088ff20705e4803f024f9524b0a227d
:1003f8001a709ee0524b1b78002b00f09a80504deb
:1004080000232b704f4c04f1840393e80300019000
:100418008df8081001a803f0d9fac1b201a802f0ba
:10042800a5f9287004f1140003f004f9424b0b22db
:100438001a707ee0424b1b78002b7ad0404d002387
:100448002b70404c01ab04f18c0207ca03c323f89c
:10045800022b120c1a7001a803f0b8fac1b201a855
:1004680002f0b6f9287004f1980003f0e3f8324b73
:100478000c221a705de0324b1b78002b59d0304d9e
:1004880000232b702f4c01ab04f1ac0207ca03c345
:1004980023f8022b120c1a7001a803f097fac1b2c4
:1004a80001a802f095f9287004f1b80003f0c2f829
:1004b800214b0d221a703ce0214b1b78002b38d0c1
:1004c8001f4d00232b701f4c01ab04f1d80207ca43
:1004d80003c323f8022b120c1a7001a803f076fa52
:1004e800c1b201a802f074f9287004f1b80003f051
:1004f800a1f8114b09221a701be0114b1b78c3b1ec
:100508000f4c0023237002f057fc2070154803f0ad
:1005180091f8094b04221a700be0094b1b782bbb8e
:10052800074b00221a70104b1b7863bb024b0f223b
:100538001a7005b030bd00bf7c1000208a10002062
:1005480089100020401300005413000064130000b9
:10055800403900008f10002078130000a01300001d
:10056800b0130000f81300008b100020174c002374
:10057800237002f0bffe2070154803f05bf8154b9e
:100588000f221a70cce7144803f054f8134b0022da
:100598001a7002f089fc0f4b0e221a70c9e70b4c37
:1005a800002323700e4b93e8030001908df8081088
:1005b80001a803f00bfa02230a4ac1b201a801f00c
:1005c80021fd2070034b0f221a70b2e7891000201a
:1005d800b01300007c100020241400008b100020b1
:0805e800441400008010002003
:020000040000fa
:1005f0002c1000201c0000000000000079100020da
:1006000001000000000000007d100020010000003b
:10061000000000007a10002002000000000000002e
:100620008410002001000000000000008510002060
:100630000100000000000000861000200100000002
:10064000000000005c10002004000000000000001a
:100650000000002000050000000000007e100020c7
:1006600002000000000000008210002002000000d4
:1006700000000000d40b00208000000000000000fb
:100680008710002001000000000000008010002002
:10069000020000000000000088100020010000009f
:1006a00000000000140b0020c0000000000000004b
:1006b000540c00208000000000000000d40c00203a
:1006c00080000000000000006c0f002040000000cf
:1006d00000000000481000200c0000000000000096
:1006e0008910002001000000000000008a10002096
:1006f00001000000000000007c100020010000004c
:10070000000000008b10002001000000000000002d
:100710008f1000200100000001000000c000000058
:10072000540d00208000000000000000d40d0020c7
:100730008000000000000000ac0f0020400000001e
:1007400000000000ec0f002040000000000000004e
:10075000540e002064000000000000008c100020f7
:100760000100000000000000b80e0020640000003e
:10077000000000008d1000200100000000000000bb
:10078000601000200400000000000000781000202d
:1007900001000000000000008e1000200100000099
:1007a00000000000641000200400000000000000b1
:1007b0007c11002004000000010000000001000086
:1007c00080110020040000000100000030303030b3
:1007d0006810002004000000000000001c0f002032
:1007e0005000000000000000901000206c0000008d
:1007f000010000009c100020981000209c10002098
:100800000000000025000000080500200004000092
:1008100000000000000000000000000000000000d8
:1008200000000000000000000000000000000000c8
:10083000a93a0000000000000000000000000000d5
:10084000000000009d2800000000000000000000e3
:100850000000000000000000000000000000000098
:100860000005002008040000000000005c110020ca
:100870002000000001000000010000000300000053
:100880000000000000000000000000000000000068
:100890000000000054100020541000200800000048
:1008a000000000006c1000200400000000000000a8
:1008b0007010002004000000000000000809002063
:1008c0000c02000000000000fc100020600000008e
:1008d0000100000001000000030000000000000013
:1008e0000000000000000000000000000000000008
:1008f000112a0000000000000000000000000000bd
:10090000953a0000b73a0000000000000000000027
:1009100000000000000000000000000000000000d7
:1009200000000000000000000000000000000000c7
:10093000000000007410002004000000000000000f
:100940000000000000000000444444444444444487
:020000040000fa
:100950002de9f04fadb00027dff8e4a20391064681
:100960001546b8464ff0ff3903990b78002b00f07d
:10097000f9800cabcde907890a938023cdf8248058
:100980000b9300240b5d0bb1252b26d134b12246ed
:10099000304602f00cfc039b23440393039b1a781c
:1009a000252a40f0d78003f1010bcdf80cb0039855
:1009b00003782b2b1ad025d8202b1bd0232b1dd00e
:1009c0002a2b27d002f00cfb0990039b1a78303aaf
:1009d000092a2ed801330393f7e70134d2e7079ba6
:1009e00043f00103013007930390e0e7079b43f0d6
:1009f0000403f7e7079b43f00803f3e7079b43f083
:100a00001003efe72d2bead0302bd9d1079b43f011
:100a10000203e7e72b681a1d1b682a600130002bd0
:100a20000390099305da079a5b4282f0010207926c
:100a30000993079bda0744bf23f002030793039b44
:100a40001a782e2a0dd1581ccdf8208003905a78a0
:100a50002a2a25d1023303932b681a1d1b682a60aa
:100a6000089303a802f0dcfb039b0190187802f0c6
:100a7000cfff6928019979d032dc632800f0c68065
:100a800019dc252800f0d080612853d025238df86b
:100a90001030cdf80cb0cdf81c80cde90898c0e03e
:100aa00002f09efa0890039b1a78303a092ad8d8a7
:100ab00001330393f7e7642858d06728e6dc2a4619
:100ac00004a802f07cfd002800f09c80039b5a1cc7
:100ad00003921b7804aa07a9304602f0e3ff38e02e
:100ae000702873d015dc6e2800f087806f28cdd178
:100af0002b46002204a801f095f8002800f082801f
:100b0000039b04aa013307a93046039301f08ffd2c
:100b10001fe075283ad0782848d07328b6d18029ac
:100b200070d1039b2a6801330393131d2b60126855
:100b300000235be02a4604a802f041fd002861d0b2
:100b4000039b5a1c03921b7804aa07a9304602f0a3
:100b5000a9ff04443c44a7426edd384b4f221a6083
:100b60004ff0ff3738462db0bde8f08f2b460122fd
:100b700004a801f057f8002844d0039b04aa0133cd
:100b800007a93046039301f04bf9e2e72b46002218
:100b900004a801f047f8002834d0039b04aa0133cd
:100ba00007a93046039302f011f8d2e72b46002242
:100bb00004a801f037f828b3039b5a1c03921b7852
:100bc00004aa07a9304600f015fdc2e72b46002213
:100bd000f02104a801f026f8a0b1039b0133039390
:100be000dde90423134306d10023524607a930460a
:100bf00001f094ffade77823e2e72b463a1904a809
:100c000001f060fc039b01330393a3e78029f9d132
:100c1000039b013303932b681a1d1b682a608df810
:100c20001030012304aae1e78029ebd1039b8df862
:100c3000100001330393f4e7274695e67010002077
:040c4000ea3700008f
:020000040000fa
:100c44002de9f04f099f154604468e461e46002b9b
:100c540040f0cc808a42b2fa82fc4cd9bcf1000f3d
:100c64000bd0ccf1200801fa0cfe20fa08f802faa5
:100c74000cf548ea0e0e00fa0cf44fea15491ffa77
:100c840085f8befbf9fa210c09fb1ae30afb08fb01
:100c940041ea03439b452ad9eb180af1ff3004d2f9
:100ca4009b4502d9aaf102002b44a3eb0b03a4b287
:100cb400b3fbf9f209fb123302fb08f844ea0344dc
:100cc400a04516d92c1902f1ff3303d2a04501d94e
:100cd400931e2c44a4eb080443ea004027b124faf1
:100ce4000cf400233c607b603146bde8f08f504635
:100cf400dbe71346eee702b9ffdebcf1000f2ed1ad
:100d04008b1a01264fea154eaab2b3fbfef8210c4a
:100d14000efb183308fb02f941ea0343994561d9f4
:100d2400eb1808f1ff3004d2994502d9a8f102006a
:100d34002b44a3eb0903a4b2b3fbfef10efb113366
:100d44004a4344ea0344a2424ed92c1901f1ff3329
:100d540003d2a24201d98b1e2c44a41abce7ccf1c5
:100d6400200e02fa0cf521fa0ef901fa0cf320fa1e
:100d74000efe4eea03034fea154800fa0cf4b9fbe1
:100d8400f8f11ffa85fe08fb1192180c01fb0ef610
:100d940040ea0242964221d9aa1801f1ff3003d257
:100da400964201d9881e2a44921b9bb2b2fbf8f9e1
:100db40008fb192209fb0efe43ea02439e450fd9a4
:100dc400eb1809f1ff3604d29e4502d9a9f10206b7
:100dd4002b44a3eb0e0346ea004693e70846e3e7f9
:100de4004e46f6e74046a4e70b46b6e78b4206d9e3
:100df400002f7ed00026c7e90001304674e7b3fa1d
:100e040083fcbcf1000f0fd18b4201d3824209d87d
:100e1400841a61eb030e0120002f6dd0c7e9004e48
:100e2400002661e76046f7e7ccf1200e03fa0cf3e5
:100e340022fa0ef521fa0ef41d4301fa0cf320fafe
:100e44000ef10b434fea154a00fa0cf6b4fbfaf91b
:100e54001ffa85f80afb19401c0c09fb08f144ea47
:100e64000044a14202fa0cf23fd92c1909f1ff30d7
:100e740004d2a14202d9a9f102002c44641a9bb203
:100e8400b4fbfaf90afb194409fb08f843ea0441e4
:100e940088452cd9691809f1ff3304d2884502d951
:100ea400a9f10203294443ea0040a1eb0801a0fb95
:100eb40002894945c2464c4602d306d1464504d26e
:100ec400b8eb020a69eb05040138afb1b6eb0a03cb
:100ed40061eb040606fa0efe23fa0cf34eea030352
:100ee40026fa0cf6c7e900369ae74846c6e74b46a9
:0c0ef400d9e73e463846f7e63e46f5e6f4
:020000040000fa
:100f00002de9f04f85b0974b1c88a4b2964b1b7807
:100f1000002b33d0944b00221a70924b1a88934bbb
:100f20001b681344b3f5a06f44d38e4d28882a88dc
:100f30008f4e904fc2f5a0623946304402f028fd32
:100f400029882a88894b1b68a3f5a063c1f5a06195
:100f50001a443944304602f01bfd844b1b68814a19
:100f600011880b449bb2138013889bb2b3f5a06f1a
:100f700004d31388a3f5a0639bb213807e4b1b8818
:100f8000a34288bf4ff4a0647c4a12787c49b1f830
:100f900000b07c4908787c490e78002102918a468d
:100fa000019188468e4672494ff0010c6746cdf894
:100fb0000ca02ce06b4b1b886c4a12686d496c4886
:100fc000184402f0e5fcc8e7cd5cedb2312d0cd041
:100fd00001339db2abb29c420dd911f805e05ffa26
:100fe0008efe0135bef1310ff4d101339bb2e246e2
:100ff0003e46be460be0e64609e0cd5cedb2352d3f
:101000000cbf0226002601339bb2e246be46a34235
:1010100080f08580042efad801a555f826f000bf8f
:10102000c90f0000fb0f0000351000004b1000003e
:10103000cb100000cd5cedb23b2d0cbf032600268b
:1010400001339bb2e246be46e1e71d4610e00133a4
:101050009bb2e246042601970022b8460398be469a
:10106000d5e701339bb201351ffa85fe74450dd9d2
:10107000abb211f805e05ffa8efebef13b0ff0d186
:101080000130c0b20328e2d0b846eae7e646bee740
:10109000cdf804c0be46bae7bef1000f01d0364914
:1010a0000b80b8f1000f01d0364b1870019b0bb1cb
:1010b000324b1a700023344a1370314a1380334a7a
:1010c00013702e4b93f9000049e09946cd5cedb2c8
:1010d0003b2d18d001339db211f8093002eb82028a
:1010e00003eb4202303ad2b2abb29c42d0d9a9460d
:1010f00011f805e05ffa8efe0135bef13b0febd132
:10110000cdf804c0be460bf1010b1ffa8bfbbbf1ff
:10111000640fc1d0cdf808c0ba46002677e7bef10b
:10112000000f01d014490b80b8f1000f01d0154910
:101130000870019909b111490a70baf1000f01d084
:10114000114a1670029a12b10d4aa2f800b0b3f516
:10115000a06f02bf084b00221a804ff0ff3005b08d
:10116000bde8f08f7e100020851000205c1000206c
:1011700000000020d40b00208210002079100020f5
:101180007a100020871000207d100020861000209b
:020000040000fa
:101190002de9f04f87b0039003a801f0c9ff0028a4
:1011a00003da002007b0bde8f08f039b1b095d1e2a
:1011b000202d0fd9023b5e4ab3f5007f35bf02eb0d
:1011c000d30302ebd31313f8045c13f8045c34bfad
:1011d000013511350123a5f12001c5f1200203fae3
:1011e00001f923fa02f203fa05f8d8f1000849eaf6
:1011f000020969eb4909cde90089dff84081dff890
:1012000030914746d8e90023009902ea010a019982
:1012100003ea010b5aea0b0342d1039b05a81033e2
:10122000059302f06dfb18b9424b0c221a60b9e726
:10123000d8f80852a84206d0059b103b059301231d
:1012400000f110058360059bea18012143f00103ba
:10125000b5f1080442f8083c42f8041cc7f808221b
:1012600045f8043c9dd0204602f0dcf888b155f8e2
:10127000083c55f8041c23f00103e31a5a6822f0d5
:1012800001020a445a6055f8041c21f00101625021
:101290001c462046039902f00df904f1080081e78d
:1012a0005446254bbaf1000f34d1cbf1000000eacf
:1012b0000b00434309ebd36393f83c602036304680
:1012c00002f03efa731c57f8334007ebc303083ba8
:1012d0009c4297d0272e26dd0235ae4201dc3f2e00
:1012e00021d16268039922f00102551a284601f0c3
:1012f000cfff864217d1e068a6686318d8609e6069
:1013000083609868c36041f0010060505d60a55043
:101310006060bee7caf100002040434309ebd3639d
:1013200093f83c60cbe73146204601f023fcb0e760
:10133000b42900007010002029e66b07080900207e
:020000040000fa
:10134000496e697469616c697a656420524e4244e1
:101350000d000000456e746572656420434d440db8
:1013600000000000466163746f72792052657365f6
:101370007420446f6e650d004e616d652053657479
:101380000d00000030333430000000004465766901
:101390006365204e616d65205365740d000000008b
:1013a000417070656172616e6365205365740d00f4
:1013b0005265626f6f7420436f6d706c6574656405
:1013c0000d00000031383044000000003241333756
:1013d0002c31302c303500005365727669636520fe
:1013e00055554944205365740d000000324133388f
:1013f0002c30322c303500005365727669636520dd
:1014000043686172616374657269737469637320a0
:101410005365740d00000000324133392c30382cf4
:1014200030350000212121204d6561737572696e90
:101430006720486561727420526174652021212102
:101440000d0000003130303200000000524e4244a6
:101450003435315f48454152545f524154455f50e5
:10146000524f46494c450d00524e42443435315f8f
:10147000494e495449414c495a45440d0000000029
:10148000524e42443435315f4e4f545f494e4954b9
:0c14900049414c495a45440d000000bf82
:020000040000fa
:10149c0070b50546484b1a689ab10021474e00e0da
:1014ac000246100902f00f03092b94bf3033373377
:1014bc00ccb2335501310f2af2d8414a13603e4b5e
:1014cc0018604049284602f05ff838b100233e4ac4
:1014dc0013703e4a13703e4a137070bd3d49284646
:1014ec0002f052f818b13a4b01221a70f5e73a495a
:1014fc00284602f049f8002847d0354b00221a70d4
:10150c00681e364b03f1310110f8012f03f8012b43
:10151c009942f9d1314c04220821204601f0f2ff06
:10152c0008220d21204601f0edff0822162120464d
:10153c0001f0e8ff08221f21204601f0e3ff0422fe
:10154c002821204601f0deff04222d21204601f047
:10155c00d9ff4f2002f0aaf9542002f0a7f941203c
:10156c0002f0a4f9412002f0a1f92c2002f09ef91e
:10157c00302002f09bf9312002f098f90d2002f096
:10158c0095f90a2002f092f9a7e71549284601f0cf
:10159c00fbff30b10d4b01221a700d4b00221a705b
:1015ac009be71049284601f0efff002895d0064b29
:1015bc0001221a7091e700bf7c11002080110020dd
:1015cc0064100020303300008d1000208c1000209f
:1015dc008e1000203c33000048330000b80e002071
:0815ec00503300005c330000e5
:020000040000fa
:1015f4002de9f04fd1e901590e68d1f80c808bb078
:10160400002da8bf26f002060393b8bf012516f0eb
:10161400100302900f460493d2e900ab37d05aea84
:101624000b0334d0a9f102033c6916f0080104f15c
:10163400ff3405914ff0000108f8041006f0020190
:101644000691039918bf03f1ff335b1b4139012c49
:101654001fdc049b002b4cd1059b1bb1013c2023b8
:1016640008f804303a690096013a4b46121b08eb1d
:101674000401029800f0a6fe029b5b68db0503d51b
:101684007b689842b8bf18460bb0bde8f08f4b4654
:10169400cae75aea0b0007d1002d05dc58190028c7
:1016a400d7dd06980028d4d00af00f000928d4bf4b
:1016b40030305730192904f1ff340ed840f0200c93
:1016c400acf1610cbcf1190f07d8cde908310792d0
:1016d40002f0a3f9dde90831079a08f804004fea9b
:1016e4001a1040ea0b704fea1b1c013d8246e34688
:1016f400ade7d2e900231343aed008eb0403039a09
:0e17040003f8012c023c302308f80430a4e75f
:020000040000fa
:0217120070471e
:020000040000fa
:101714003c4b00221a7403f500633b4a9a621a4652
:10172400536813f0100ffbd1384b4222c3f88420c6
:101734001a46d2f8843013f0400ffad0344b00220a
:101744009a6377225a631a46d36b13f0040ffbd1c2
:101754002f4b022283f830201a46d36b13f0020f6a
:10176400fbd12b4a136c03f00303032bfad1294b4f
:1017740001225a711a46d37813f0010ffbd0234b80
:10178400254a1a621a46536813f0040ffbd11f4b03
:10179400224a5a621a46536813f0080ffbd11b4bb6
:1017a4004122c3f890201a46d2f8903013f0400f2b
:1017b400fad0164b4122c3f89c201a46d2f89c302a
:1017c40013f0400ffad0114b4122c3f808211a46f6
:1017d400d2f8083113f0400ffad00c4b4122c3f871
:1017e4000c211a46d2f80c3113f0400ffad0094bf1
:1017f4006ff07f421a6141f2ff725a6103221a624a
:10180400704700bf0014004006013000001c004077
:101814000010004000080040070101000701020019
:020000040000fa
:101824002de9f84300286ad050f8043ca0f10804dc
:1018340023f00106a719a259934200d0ffde7a686b
:1018440023681340da070fd4204601f0e9fd00288d
:1018540057d1384601f070fe0028f0d07b6823f0a1
:1018640001031e441f44eae746f001036360304667
:101874003b6001f00bfd054601f060ff23687a68c8
:101884001340db07e0d5dff88ce0dee90089c5f121
:10189400200ca5f1200228fa05f009fa0cfc29fa1b
:1018a40002f240ea0c001043012100ea0102002385
:1018b4001343c5f120007346a5f1200212d121fa89
:1018c40000f001fa02f2a94042ea00021ebfdef86b
:1018d40000000143cef8001022b1def804100a43e0
:1018e400cef80420681c03ebc003a3f10802666071
:1018f4003e60a2605a68e2605c60e3689c60bde898
:10190400f883236823f00103e41a636823f00103d6
:081914001e449ee708090020b3
:020000040000fa
:10191c002de9f047002966d00e460024334d344b98
:10192c0000f1010c334fa64606e007f801909a60cf
:10193c00621c013496424cd96a6802f00702012af3
:10194c001cd09968d3f80c804a1cd3f810904a45e7
:10195c0028bf002290453dd010f80490d5f80480a3
:10196c0008f00708b8f1010fdfd14fea410807f87a
:10197c00119008f1010107f801e0d8e7d3f80880cd
:10198c00d96808f10102d3f810904a4528bf00220b
:10199c0091421fd01cf8149010f8141041ea092140
:1019ac00d5f8049009f00709b9f1010f05d0c9b2b7
:1019bc0007f808109a60621cbbe74fea48095ffa07
:1019cc0081fa07f818a009f10108090a07f80810ac
:1019dc00f0e7144601f046ff10b1044b01229a7552
:1019ec002046bde8f0870c46f4e700bf003000400d
:0819fc00ac0f0020d40d002007
:020000040000fa
:101a04002de9f0412b4c2c4f4ff086464ce0226ad6
:101a1400002a39d0616a236a40469847a36a013391
:101a2400226b934228bf00232ee0a16a4a00e8b249
:101a340007f811000132c5f30725bd542fe001f06a
:101a4400fdfe236a002b2fd0616a94f83c3033b139
:101a5400a36b984228d3236a0020984724e0a36b01
:101a6400984221d1236a002098471de0337e13f069
:101a7400040f1cd0b56aa36a0133226b934228bfba
:101a84000023e26a9a42c2d0e26a9a42eed07268b5
:101a940002f00702012ac8d0a26aedb2bd54a362c3
:101aa40094f83430002bcad14ff00108dee7bde8ca
:0c1ab400f08100bf6c0f0020540c0020db
:020000040000fa
:101ac000f8b52a4e2a4c4ee0226a002a3ad0616ac2
:101ad000236a38469847a36a0133226b934228bf92
:101ae00000232fe0a06a4200efb2224901f81070f3
:101af0000132c5f307258d5430e001f0c5fe236a9d
:101b0000002b30d0616a94f83c3033b1a36b98421b
:101b100029d3236a0020984725e0a36b984222d15d
:101b2000236a002098471ee0337e13f0040f1cd078
:101b3000b56aa36a0133226b934228bf0023e26a8d
:101b40009a42c1d0e26a9a42eed0726802f007026d
:101b5000012ac7d0a26aedb206498d54a36294f857
:101b60003430002bc9d10127dee7f8bd003000403a
:081b7000ac0f0020540d002011
:020000040000fa
:101b780038b5224b1b787bb1214b1b784bb3214bdb
:101b88001988214a214813889bb28b4202d10378d5
:101b9800002bf8d0012038bd00211d4801f048ff76
:101ba8004ff4a0611b4800f0cbfb0a2001f03aff7c
:101bb8000021012001f04cfe01f0b4fe164c8025f6
:101bc8006561012001f090faa5610c4b01221a70a1
:101bd800d2e741f2883001f087fa4ff4a062002181
:101be8000c4801f0ebfe064b01221a700023064a4e
:101bf8001380044a1380054a1370c0e7841000203c
:101c080086100020821000207e1000208510002001
:0c1c1800e53400000000002000800041c6
:020000040000fa
:101c2400882910b536d012dc812943d003dc802901
:101c340040d0002010bd82290ed08429f9d1196822
:101c440002b30a1d1a60b1f90020d3171ee0a029bf
:101c54002bd00bdc9029ecd11968073121f0070156
:101c640001f108021a60d1e900230fe0c02901d074
:101c7400f029ded11a68111d19601368036000236e
:101c8400436005e00a1d1a600a880023c0e90023a6
:101c94000120cfe7196822b10a1d1a6091f90020ca
:101ca400d3e70a1d1a600a78efe71a68111d196054
:101cb4001268cae719681ab10a1d1a600a68c4e7eb
:0c1cc4000c1d1c600b68c0e90032e1e759
:020000040000fa
:101cd00030b583b0264c274d4ff0864214e0e95cc6
:101ce0008df8061001332169994298bf0023e36003
:101cf000536803f00703012b14bf9df80630bdf8ad
:101d000006309362237dbbb9137e13f0010f2dd0f3
:101d1000a168e368994225d0516801f007010129c3
:101d2000ddd1590015f813008df806000131695c0a
:101d30008df807100133d6e701f0eefd2368002b84
:101d4000cad06168237f33b1a3699842c4d32368a2
:101d500003209847c0e7a3699842bdd123680320b8
:101d60009847b9e74ff0864301221a7503b030bd9a
:081d70006c0f0020d40c0020d0
:020000040000fa
:101d780070b582b0254d264c264e14e0f25c8df8e5
:101d88000620013322699a4298bf0023e3606b68fa
:101d980003f00703012b14bf9df80630bdf8063089
:101da800ab62237dbbb92b7e13f0010f2cd0a26848
:101db800e3689a4225d06a6802f00702012addd159
:101dc8005a0016f813108df806100132b25c8df81f
:101dd80007200133d6e701f0b9fd2368002be2d0d4
:101de8006168237f33b1a3699842dcd32368032059
:101df8009847d8e7a3699842d5d123680320984724
:101e0800d1e7024b01221a7502b070bd00300040c4
:081e1800ac0f0020d40d0020e6
:020000040000fa
:101e20002de9f041d2e900230c4686b007465fea6f
:101e3000d37820684968a5680590e66841d0524289
:101e400063eb4303002908db20f002000590b8f1a2
:101e5000000f02d1059948072ad5691e05a80290ee
:101e60000a20cde90010204600f06afbb8f1000f0f
:101e700002d1059b59071fd5b8f1000f00f1ff30c3
:101e800014bf2d232b2333542269059b0093013a61
:101e90002b46121a3118384600f096fa7b68db059b
:101ea00003d563689842b8bf184606b0bde8f08114
:101eb0000807d2d42946d1e71a07e5d501382023ef
:081ec000e1e70029c0dac5e7e3
:020000040000fa
:101ec8002de9f84f06460f4691469a46234ce56899
:101ed80001e063689847a8470028fad13946304698
:101ee80001f07ef90024dff87480012704e0d8f8b7
:101ef8001c30384698470134a84706460028f6d0d3
:101f0800412cf4d9dff8588047460024dff84cb05c
:101f180005e0dbf80430984707f8010b0134a847bf
:101f280002460028f5d1a24513d1acb10c4b197863
:101f380099f8003099420cd109f101034c44a342ad
:101f480006d013f8011b18f8010f8842f7d000e0fb
:101f580032461046bde8f88f3246fae7d43600001c
:041f6800540e0020f3
:020000040000fa
:101f6c00254ad36823f4e0631b041b0c43f0bf63c6
:101f7c0043f40033d360bff35f8f62b61f4be02195
:101f8c0083f81b134ff00060186083f82e134ff486
:101f9c008040586083f82f134ff40040586083f84a
:101fac0030134ff48030586083f831134ff4003005
:101fbc00586083f83e134ff08040586083f83f130d
:101fcc004ff00040586083f840130120986083f86c
:101fdc00411302219960536a43f48023536253697d
:101fec0043f010035361536a43f400335362536a52
:101ffc0043f480335362704700ed00e000e100e0f1
:020000040000fa
:10200c00f0b585b007460e46154601ac204a07ca06
:10201c0003c422801f4a532111704821517057214b
:10202c0091702c21d17056b17a1e1b49701e57fa33
:10203c0080f012f8014f01f8014f8242f9d1154a94
:10204c00311dc9b22c205054711dc9b230205054ce
:10205c000636f6b290555bb1691e02f10a005a1ea3
:10206c0055fa82f211f8014f00f8014f9142f9d163
:10207c00084803f10b02d2b20d2181540c33dab2b1
:10208c000a23835401aa0f21fff718ff05b0f0bdf6
:0c209c007c300000ec0f0020ef0f002053
:020000040000fa
:1020a8002de9ff41836946690093f61acde901617c
:1020b80004461746039216444ff002086d464246fe
:1020c8002946206801f0c2f9b04209d1d4e90232a8
:1020d800c4e905331a44a262384604b0bde8f08169
:1020e80000280dda6268002342f01002b8f1020fee
:1020f800a362c4e90533626015d06b68ff1aebe789
:102108006b68984288bf0835a6eb000688bfc01ade
:102118002b6803442b606b68a3eb000088bf08f1b1
:0a212800ff386860cbe71f46d6e7da
:020000040000fa
:02213200fee7c6
:020000040000fa
:102134001f4a137843f001031370536813f0010f1f
:10214400fbd11b490b7843f010030b700022ca61ca
:102154004ff010430b624ff400430b634a630b616f
:10216400144b10221a819a821a849a851a87a3f82a
:102174004420a3f85020a3f85c20a3f86820a3f817
:102184007420a3f88020a3f88c20a3f89820a3f847
:10219400a420a3f8b0200f22a3f8bc200b7843f0ae
:1021a40002030b700a46536813f0020ffbd1704709
:0821b40000280040140b00207c
:020000040000fa
:1021bc0008b5194b9847194b9847eff3108172b635
:1021cc00174ad2f8883043f47003c2f88830bff352
:1021dc004f8fbff36f8f01b962b6124a936823f029
:1021ec00010393601346da6812f0010ffbd10d4b1b
:1021fc0024225a6001229a6001f04cfc0a4b23f015
:10220c007f03074a9360094b9847094b9847094b42
:10221c00984700f02bfdfee77f3700007f3700006a
:10222c0000ed00e0006000410000000059290000b2
:08223c007f3700007f3700002e
:020000040000fa
:102244002de9f0411c4ad36a956a89b30e46ab4224
:1022540008bf002227d00122dff864c0174ca0f188
:10226400020e0138144f0ce0e15c81540133396be8
:10227400994298bf0023b24214d2511cab4212d0ef
:102284000a46dcf8041001f007010129ecd15900d9
:1022940014f813800ef812800131615c00f81210fa
:1022a4000133e4e71d46044bdd621046bde8f081ce
:1022b4001d460a46f7e700bfac0f0020540d00206e
:0422c40000300040a6
:020000040000fa
:1022c8004ff086431c4a1a604ff622029a814ff457
:1022d80040325a601a46d369002bfcd14ff086422f
:1022e800136843f002031360d369002bfcd1134b2e
:1022f80000221a629a62da6283f8342083f83c205a
:102308009a63da871a609a60da601a751a779a619e
:102318004ff086435b6803f00703012b074b14bf9c
:10232800802240221a631a614ff0864380229a75f0
:1023380004229a75704700bf040110406c0f0020fa
:020000040000fa
:102348002de9f0411c4ad36a956a89b30e46ab421f
:1023580008bf002227d001224ff0864c174ca0f16d
:10236800020e0138144f0ce0e15c81540133396be3
:10237800994298bf0023b24214d2511cab4212d0ea
:102388000a46dcf8041001f007010129ecd15900d4
:1023980014f813800ef812800131615c00f81210f5
:1023a8000133e4e71d46044bdd621046bde8f081c9
:1023b8001d460a46f7e700bf6c0f0020540c0020aa
:020000040000fa
:1023c8002de9ff471d460c9b13f0010906468a4676
:1023d800144601d195420bd822465146304600f0aa
:1023e800e2fea54204d82546284604b0bde8f08799
:1023f8002f1b102f3a464ff0200128bf10226846a5
:10240800b84601f0dbfab8f10f0f11d83b096ff0ad
:102418000f0202fb03726946304600f0c4feb9f1b0
:10242800000fe1d122465146304600f0bcfedbe702
:1024380010226946304600f0b6fea8f11008e2e71f
:020000040000fa
:102448001b4b1c4a1a604ff622029a814ff4403205
:102458005a601a46d369002bfcd1154a136843f019
:1024680002031360d369002bfcd1134b00221a62bc
:102478009a62da6283f8342083f83c209a63da8718
:102488001a609a60da601a751a779a61084b5b6865
:1024980003f00703012b084b14bf802240221a6364
:1024a8001a61034b80229a7504229a75704700bfff
:0c24b8000030004004011040ac0f002078
:020000040000fa
:1024c400842910b523d00cdc812903d0822913d0b0
:1024d40080290bd119680c1d1c600b6803601a60fd
:1024e40013e0902921d003dc882917d0002010bde7
:1024f400a029efd0c029ece719680c1d1c600b68fb
:102504000360d1171046c3e900010120efe7196801
:102514000c1d1c600b6803601a80f6e719680c1d1b
:102524001c600b6803601a70efe719680c1d1c60cf
:0c25340009680160d317c1e90023e6e745
:020000040000fa
:102540002de9f84f04460c9f6668d4f80cb0246956
:1025500010463a68013c002502f0020a0b9a0bf87b
:102560000450002e1946b8bf0126012390464feab9
:10257000e279002c03dcd3b12046bde8f88f50eaa5
:10258000010209d1721b002a06dc0a9a521b002a9a
:10259000f1ddbaf1000feed042464b4600f072ff7b
:1025a000013c134630320bf804200135e1e73b686b
:0825b00023f010033b60dfe79c
:020000040000fa
:1025b800f8b5846a05460f46164654b1ab6a6a698f
:1025c8009b1ab3420bd2324639462846fff768fdbc
:1025d800f8bd01f079f90028f0d02046f8e7002e80
:1025e800f1d095f93430002b1bdbdbb23446621e88
:1025f800b95c994212d1224639462846fff750fd68
:10260800a042e5d32744341b22463946686901f0c5
:10261800bbf96b691c446c613046d9e71446002a43
:06262800e5d13446f0e7a5
:020000040000fa
:10262e00f0b50c4649682368a768e56887b00029ad
:10263e000593a4bf23f00203059305ab0293082371
:10264e00cde900730646d2e900232046fff771ff5d
:10265e00059bd90642bf00f1ff3030232b54059b5a
:10266e001a0742bf00f1ff3020232b542269059b2d
:10267e000093013a3b46121a29183046fff79dfe89
:10268e007368db0503d563689842b8bf184607b078
:02269e00f0bd8d
:020000040000fa
:1026a00030b585b005460c4601ab154a07ca03c3d1
:1026b0001a80144b53221a704e225a702c229a7090
:1026c000dcb16b1e104a601e55fa80f013f8011f32
:1026d00002f8011f8342f9d123460a48da1cd2b21c
:1026e0000d2181540433dab20a238354611d01aaf7
:1026f000c9b2fff7e9fb05b030bd2346ede700bfe7
:0c2700007c300000ec0f0020ee0f0020e9
:020000040000fa
:10270c0030b585b005460c4601ab144a07ca03c365
:10271c001a80134b53221a7044225a7041229a7019
:10272c002c22da7054b16b1e0e4a601e55fa80f0e2
:10273c0013f8011f02f8011f8342f9d10848231d29
:10274c00dbb20d22c2540534e4b20a2101550b460a
:10275c0001aafff7b3fb05b030bd00bf7c30000011
:08276c00ec0f0020ef0f00202c
:020000040000fa
:1027740030b585b005460c4601ab134a07ca03c3fe
:102784001a80124b50221a7053225a702c229a70bb
:1027940054b16b1e0e4a601e55fa80f013f8011fe7
:1027a40002f8011f8342f9d10848e31cdbb20d2271
:1027b400c2540434e4b20a23035501aa0921fff7e1
:1027c40081fb05b030bd00bf7c300000ec0f002061
:0427d400ee0f0020e4
:020000040000fa
:1027d80030b585b005460c4601ab134a07ca03c39a
:1027e8001a80124b50221a7043225a702c229a7067
:1027f80054b16b1e0e4a601e55fa80f013f8011f83
:1028080002f8011f8342f9d10848e31cdbb20d220c
:10281800c2540434e4b20a23035501aa0f21fff776
:102828004ffb05b030bd00bf7c300000ec0f00202e
:04283800ee0f00207f
:020000040000fa
:10283c0070b5144b144a0021934206d3134a002559
:10284c00d2e9003123b919b970bd03f8011bf3e7c4
:10285c00946858180c3294b11446834208d111f084
:10286c00030318bf012303eb910102eb8102e7e79d
:10287c0014f8016b03f8016befe703f8015b83427b
:10288c00fbd1dde70000002000000020f005000077
:020000040000fa
:10289c007fb5c36800911546002b18bf013a019211
:1028ac0082680446cde902230e460222694600687e
:1028bc0000f09afd002808dc00f0180383f00802f1
:1028cc0063681343636005460fe0019a8242fad2b3
:1028dc00a368e363801ae268184420642ab15a1c86
:1028ec00e2632e441b7806f8013c284604b070bd08
:020000040000fa
:1028fc0008b54ff086439b7d0bb34ff08642137e99
:10290c00dbb2927d12f0800f1ad14ff08642137e0b
:10291c00dbb2927d12f0010f04d013f0010f01d045
:10292c00fff7d0f94ff08642137edbb2927d12f0a6
:10293c00040f04d013f0040f01d0fff75df808bdad
:0c294c0013f0800fe1d000f00dfadee780
:020000040000fa
:102958000e4a38b5002313600d4a0e4c13600e4a18
:102968000e4d13600e4a13600e4a13600e4a5362ee
:1029780013610123936001f031f801f00ef8ac42c5
:1029880000d338bd54f8043b9847f8e76c10002092
:10299800280f00206c020000240f002070020000a5
:0c29a8001c0f0020200f00202c0f00202e
:020000040000fa
:1029b40020212223242425252626272728282828c1
:1029c400292929292a2a2a2a2b2b2b2b2c2c2c2c5b
:1029d4002c2c2c2c2d2d2d2d2d2d2d2d2e2e2e2e23
:1029e4002e2e2e2e2f2f2f2f2f2f2f2f0001170299
:1029f4001d1813031e1b190b1408040d1f161c129b
:0c2a04001a0a070c1511090610050f0e28
:020000040000fa
:102a100038b50d46044608b9002038bd43689b060a
:102a200007d5d0e905239a4216d80023c4e9053317
:102a3000a362d4e90f13994204d20122c91a206873
:102a400001f036f80023c4e90f33002de4d02068ec
:102a5000bde8384001f021b80022c36a114698470a
:0c2a60006369002be1d14ff0ff30d6e796
:020000040000fa
:102a6c0008b5144b9b7df3b1124a137edbb2927df9
:102a7c0012f0800f18d10f4a137edbb2927d12f048
:102a8c00010f04d013f0010f01d0fff76ff9094ac1
:102a9c00137edbb2927d12f0040f04d013f0040ffe
:102aac0001d0fff707f808bd13f0800fe3d000f05a
:082abc0045fae0e7003000409c
:020000040000fa
:102ac40010b584b0034601ac114a07ca03c422807e
:102ad4001a0910495320087048702c208870092a5c
:102ae40094bf303257320b49ca7003f00f03092bdd
:102af40094bf30335733074803710d2343710a23be
:102b0400837101aa0721fff7ddf904b010bd00bfee
:082b14007c300000ec0f0020f2
:020000040000fa
:102b1c002de9ff41134dd1f80080af88adf80c7052
:102b2c0006462868029002aca8798df80e00002a9f
:102b3c0018bf1446d1e901571a461bb9204600f0bc
:102b4c0043ff0246002d02dbaa4228bf2a46cdf8dd
:102b5c0000803b4621463046fff730fc04b0bde810
:082b6c00f08100bf8c3a00006b
:020000040000fa
:102b740070b5d0e90245a54217d10122a1f1200385
:102b8400c1f1200622fa06f602fa03f333438a401f
:102b9400db43d6431ab10b490a6832400a605a1c17
:102ba4001fbf084a51680b4053604368ac6043f050
:102bb400010223f00103e5604260c25842f00102c1
:082bc400c25070bd0809002099
:020000040000fa
:102bcc00f0b50c4649682368a668e76887b0002909
:102bdc000593a4bf23f00203059305ab02930a23cc
:102bec00cde900630546d2e900232046fff7a2fc9d
:102bfc002269059b0093013a3346121a391828466c
:102c0c00fff7dcfb6b68db0503d563689842b8bf44
:062c1c00184607b0f0bdf0
:020000040000fa
:022c2200fee7cb
:020000040000fa
:102c2400134bc0221a6048f280021a61002183f813
:102c3400461083f84710012283f8482083f849207e
:102c4400052083f84f0083f83310222083f83400e2
:102c540083f8371083f8cc2083f8cd2083f8d02074
:102c640083f8d12083f8b60083f8b800704700bf1a
:042c7400008000419b
:020000040000fa
:102c780008b5002000f03ef90c4800f0dbfc00f03d
:102c88009dfb0b4b187068b10a4800f0d3fc0a4b47
:102c980000221a70002209490f2000f05ffbfdf79f
:102ca800effafce7064800f0c5fcf3e74c14000017
:102cb8008a100020681400007c100020453a0000ab
:042cc8008014000074
:020000040000fa
:102ccc0030b589b001ac104d0fcd0fc495e807009d
:102cdc0084e807000d4853230370462343702c23cc
:102cec0083703223c3700d2303710a2343711c2399
:102cfc0001aa0621fff7e2f80446054bdb69fa202e
:102d0c009847204609b030bd94300000ec0f0020ed
:042d1c00d4360000a9
:020000040000fa
:102d200010b370b506460d4600f034fbd5b1002453
:102d30000e4a137e13f0040ffbd0538b13f0070fd2
:102d40000bd1536803f00703012b936a14bf33556b
:102d500026f814300134a542ebd1a54214bf00205f
:102d6000012070bd2c46f8e70020704700040043a6
:020000040000fa
:102d700008b54ff086435b8b13f0070300d108bd05
:102d80000e4ad3874ff0864380221a7607225a8351
:102d90001b7e13f0040f06d04ff086439a6a1a7e0a
:102da00012f0040ffad1054b1b6a002be7d0034b3e
:102db000596a1b6a02209847e1e700bf6c0f0020a8
:020000040000fa
:102dc00010b584b001ab0f4a07ca03c323f8022b26
:102dd000120c1a700c48522303702c2343703123b9
:102de00083700d2303710a2343710b2301aa05216c
:102df000fff76af80446054bdb69fa20984720463e
:102e000004b010bd88300000ec0f0020d436000064
:020000040000fa
:102e100030b589b015464ff0ff32019202f203122d
:102e2000029200b96846cde9030151b14c1e002958
:102e3000059408da094b4f221a604ff0ff3009b0b1
:102e400030bd0c46f3e700220270cde906001a46b9
:102e5000294601a800f0ccfcf1e700bf701000206b
:020000040000fa
:102e600013b5836a8df80710044673b16369a26acb
:102e7000934212d3e36a01220df1070120469847dd
:102e8000012806d19df8070005e000f021fd00288b
:102e9000ecd04ff0ff3002b010bd9df8070094f960
:0e2ea00034209042e6d05a1c62611870f3e7ad
:020000040000fa
:022eae00fee73d
:020000040000fa
:102eb00010b50f4bff221a70fef75efeb8b10c4b37
:102ec00093f90000b0f1ff3f06d11c46fef718f859
:102ed0002070b0f1ff3ff9d0064c0246214606486b
:102ee00000f094fc024b1978201d00f005fc10bd89
:0c2ef000881000208037000080100020b7
:020000040000fa
:102efc0008b500f051fd0f4b1b680021186800f05d
:102f0c0053fd0d4b1b680021186800f04dfdfff7b9
:102f1c0083fefef7f9fbfef7f6fbfff78ffa00f0e6
:102f2c00affb00f0cbf9fff7c9f9fff7fdf8fff79e
:0c2f3c0017f808bd941000207811002048
:020000040000fa
:102f480008b5104b5b8b13f0070300d108bd0e4a80
:102f5800d3870c4b80221a7607225a831b7e13f0e4
:102f6800040f05d0074b9a6a1a7e12f0040ffad1a3
:102f7800054b1b6a002be9d0034b596a1b6a0220d8
:0c2f88009847e3e700300040ac0f002049
:020000040000fa
:102f9400022a70b5044616461d461ad043689b069d
:102fa40017d441b9002d08bf4ff4806505f108001e
:102fb400fef7ecf801466368012e43f020036360da
:102fc400c4e9021514bfff230a2384f83430024bea
:0c2fd400e362002070bd00bfb9250000c2
:020000040000fa
:102fe00010b50278202a034600f10100f9d0a2f1c1
:102ff00009010429f5d92b2a07d02d2a11d1012145
:103000000133013b00200a2403e00021f8e760437c
:10301000801a13f8012f303a092af8d901b9404231
:0630200010bd0021ede7e8
:020000040000fa
:02302600fee7c3
:020000040000fa
:10302800d0b110b40446c9b1084421460c4a6442e0
:10303800137e13f0010ffbd0536803f00703012b35
:1030480014bf0b7834f81130936201318142efd10b
:1030580001205df8044b7047002070470120f8e715
:04306800000400431d
:020000040000fa
:10306c00434d443e20000000454e440d0a00000034
:10307c00414f4b0d0a434d443e2000005265626f98
:10308c006f74696e670d0a005265626f6f74206110
:10309c006674657220466163746f72792052657331
:0430ac0065740d0a30
:020000040000fa
:1030b00010b5054c227832b9044b13b10448aff374
:1030c00000800123237010bd2c10002000000000a0
:1030d0000000000008b5034b1bb103490348aff3e0
:1030e000008008bd0000000030100020000000003b
:020000040000fa
:1030f00070b40d4b5e681b6813f0010f12d00b4bc0
:1031000003fb00f0084b9b6860b10021064c0136c0
:10311000a2689a4292bf9b1ab51a5b1919441346ca
:103120008842f5d870bc704710e000e0c0d40100c0
:020000040000fa
:103130000c4a036810b5546a0b4a591e121b8a4286
:103140000ad22bb1094b0c221a604ff0ff3010bd90
:10315000102202600020fae7173323f00f03036008
:10316000f8e700bf2c0f0020efffff7f701000205a
:020000040000fa
:1031700010b44c68a40602460b4603d45df8044b19
:1031800000f06ab891f93410c0b2814203d0596995
:103190009c6aa14205d3114618465df8044bfff71f
:0e31a0005fbe4c1c5c610a705df8044b70470a
:020000040000fa
:1031ae0038b5436813f4807f0446154610d0036982
:1031be0040699a4228bf1d462a4600f0e2fb62692a
:1031ce005319636123695b1b23610023535538bd7b
:0a31de00db06fcd400f081fbf9e7ea
:020000040000fa
:1031e8002de9f04180460e4600240a4fbd6801e0f3
:1031f800b44209d2a8470028fad03b6818f804005e
:1032080098470134e4b2f3e7a8470028fcd0bde8aa
:08321800f08100bfd436000074
:020000040000fa
:1032200030b50c4a002312f8134024b902eb4303d3
:103230005b78184630bd01680d78a54209bf02ebe6
:10324000430301335b78013114bfdbb201600a2b09
:08325000e9d9eee7d4370000d4
:020000040000fa
:1032580007b54a68c0b2d2050b468df8070006d5f7
:103268004a69511c5961107003b05df804fb0122d2
:103278000df10701184600f033fb10b19df8070067
:08328800f2e74ff0ff30efe721
:020000040000fa
:1032900000090138202813d9b0f5007f05d2094b69
:1032a00003ebd00010f8040c7047b0f5e05f06d8cf
:1032b000044b03ebd01010f8040c103070473f2083
:0832c000704700bfb4290000b3
:020000040000fa
:1032c8000a4b0b4a1a604ff622029a814ff4403299
:1032d8005a601a46d369002bfcd1044a136843f09c
:1032e80002031360d369002bfcd17047000400432c
:0432f800040110407d
:020000040000fa
:1032fc0000b583b0094b93e8030000908df80410df
:10330c000748242303704370837005236a46032106
:10331c00fef7d4fd03b05df804fb00bf6c30000079
:04332c00ec0f002082
:020000040000fa
:10333000444953434f4e4e45435400005354524565
:10334000414d5f4f50454e004f54415f5245510033
:103350004f54415f5354415254000000434f4e4e6e
:04336000454354008d
:020000040000fa
:1033640030b400eb4004094b03eb84031b899bb28c
:10337400834201d030bc7047044b44002518ad0093
:103384005951204403eb80035a60f3e7140b0020e7
:020000040000fa
:103394000a4b5b8b13f0070f0ed0084b80221a7672
:1033a40007225a831b7e13f0040f05d0034b9a6a3d
:1033b4001a7e12f0040ffad1704700bf00040043d4
:020000040000fa
:1033c40038b50a4c65690120a847e4690120a04783
:1033d4000020a847c820a047044dec68a04710b1be
:1033e4006b689847fae7012038bd00bfd436000067
:020000040000fa
:1033f4002de9f843002580460e4617462c4601f178
:103404000409bc4202db2846bde8f88359f834209d
:1034140056f83410404600f0a1f901340544f0e7b1
:020000040000fa
:1034240070b505462c68e30701d500200fe020465f
:10343400fff72cff064600f081f92868a042f1d17d
:1034440020f00100281a3146fff792fb012070bddd
:020000040000fa
:103454002de9f843002580460e4617462c4601f117
:103464000409bc4202db2846bde8f88359f834203d
:1034740056f83410404600f08ff901340544f0e763
:020000040000fa
:1034840053b94ab9002908bf00281cbf4ff0ff31c7
:103494004ff0ff3000f008bbadf1080c6de904ce2d
:1034a400fdf7cefbddf804e0dde9022304b070474c
:020000040000fa
:1034b400426822f00102531a102b30b40dd944187b
:1034c40041f0010543f001034550636083504560ba
:0e34d40004f1080030bcfef7a3b930bc70470d
:020000040000fa
:0234e200fee703
:020000040000fa
:1034e40000b1704708b500f0a9f901460448fef799
:1034f40029ff044b1860044b01221a7008bd00bf59
:0c350400d40b00205c100020851000207b
:020000040000fa
:1035100030b462b1084b1c6843181044014413f8de
:10352000012b42ea04248b42f9d1034b1c60024b6d
:0c353000186830bc704700bf601000201d
:020000040000fa
:10353c0070b505466c68e30701d500200de0204608
:10354c00fff7a0fe064600f0f5f86b68a342f1d138
:0c355c0028463146fff708fb012070bd37
:020000040000fa
:10356800074b1968024609b90649196018680649df
:1035780002448a4294bf1a604ff0ff30704700bf80
:0c3588007410002088110020881300201f
:020000040000fa
:1035940070b50c785cb102461378104601320bb951
:1035a400184604e09c42f7d10123cd5c05b970bdf7
:0a35b400c65cae42f0d10133f7e728
:020000040000fa
:1035be00802910db812901dd83290cd113680733a3
:1035ce0023f0070303f108011160d3e90023c0e9da
:0a35de000023012070470020704711
:020000040000fa
:1035e80070b5002902fb01f614460d4618bf1446b3
:1035f80001463246184608bf002400f071f9864299
:0a36080018bfb0fbf5f4204670bdba
:020000040000fa
:02361200fee7d1
:020000040000fa
:1036140008b5074b4ff400425a61064bd3f8b43057
:103624002bb1044bd3f8b800d3f8b430984708bd95
:0836340000280040140b0020e7
:020000040000fa
:10363c0010b5084c2368196800f06af8002807dbfd
:10364c0023680a20196800f013fac00f404210bd1d
:08365c000120fbe778110020ba
:020000040000fa
:1036640090f948305a1e1343426880f8483012f0eb
:1036740004031bbf42f010024260c0e90f334ff055
:08368400ff3008bf1846704733
:020000040000fa
:10368c00054a0023136093600449516006211160c0
:10369c00034a93601360704710e000e0bfd4010050
:0436ac0048100020a2
:020000040000fa
:1036b00008b5064b5868064a12689a6801329a6043
:1036c0001b6813b1014b1b68984708bd48100020c8
:0436d00010e000e026
:020000040000fa
:1036d4006d3a0000653a0000753a0000f5390000c3
:1036e40027380000a138000017390000b93700005e
:0436f4009d14000021
:020000040000fa
:1036f8000fb407b5064b04aa1b6852f8041b1868d8
:10370800019200f071f803b05df804eb04b0704763
:043718007811002004
:020000040000fa
:10371c0070b50e46054600f057f93346044602468e
:10372c0001212846fff75aff001b18bf4ff0ff304e
:02373c0070bd5e
:020000040000fa
:02373e00fee7a4
:020000040000fa
:10374000064b013053f830203ab9c100a1f108020c
:103750001a44194443f830204a6070470809002091
:020000040000fa
:1037600038b550b952b10c46012529462046fff71d
:0e377000d7fa0028f9d0012000e0002038bd73
:020000040000fa
:02377e00704792
:020000040000fa
:1037800025780000486561727472617465203d207f
:0c37900025642062706d20090d0a000005
:020000040000fa
:10379c0038b50d461446012801d0204638bd2146c7
:0c37ac002846fff73bfc0028f9d0f6e7a8
:020000040000fa
:1037b800034638b1044800fb03f018b1013800bfd4
:0c37c8000028fbd1704700bfc0d40100f6
:020000040000fa
:1037d40068076c094c836a9074a07ac0008068887a
:0c37e40000846c820081286e696c290052
:020000040000fa
:1037f00013b50446019201aafdf7aaf8636813f015
:0c380000100f18bf4ff0ff3002b010bdd9
:020000040000fa
:10380c000eb403b503aa52f8041b019200f01af986
:0a381c0002b05df804eb03b0704742
:020000040000fa
:023826007047e9
:020000040000fa
:10382800044a9368d06883423ebf024a12699b18d3
:08383800181a70476c0f002004
:020000040000fa
:10384000044bd86a9b6a984282bf024a126b9b184b
:08385000181a70476c0f0020ec
:020000040000fa
:10385800044b93f8342083f8340083f83c10104666
:08386800704700bf6c0f002047
:020000040000fa
:10387000044a9368d06883423ebf024a12699b188b
:08388000181a7047ac0f00207c
:020000040000fa
:10388800044bd86a9b6a984282bf024a126b9b1803
:08389800181a7047ac0f002064
:020000040000fa
:1038a00018b1044b40225a617047024b40229a6182
:0838b000704700bf00800041d9
:020000040000fa
:1038b80000b583b08df8070001210df10700fef770
:0838c80029f803b05df804fbd0
:020000040000fa
:1038d00010b50446fff7c6fe28b9a368e268c4e93c
:0838e00005331344a36210bd7f
:020000040000fa
:1038e80010b4c46a1cb123465df8044b184700683d
:0838f8005df8044bfff74ebf21
:020000040000fa
:103900000068002808b501da002008bdfff72cfe8a
:06391000431cfad1f8e7a8
:020000040000fa
:023916007047f8
:020000040000fa
:1039180010b5034b1c69fff783ff013c201a10bd4b
:043928006c0f002000
:020000040000fa
:10392c00034b00229a601a6842f001021a60704739
:04393c0010e000e0b7
:020000040000fa
:10394000524e42443435315f48454152545f5241f2
:0439500054450000da
:020000040000fa
:1039540010b5034b1c69fff789ff013c201a10bd09
:04396400ac0f002084
:020000040000fa
:1039680010b5034c01212046fef768fc207810bdf5
:0439780078100020a3
:020000040000fa
:10397c0008b500f081f8024b1860586008bd00bf14
:04398c0054100020b3
:020000040000fa
:1039900010b500239a4200d110bdcc5cc454013351
:0239a000f8e746
:020000040000fa
:0239a20070476c
:020000040000fa
:1039a400024b40f204521a80704700bf00400041ad
:020000040000fa
:1039b40000294ff480630cbf02220022fff7e8ba0b
:020000040000fa
:1039c40002440346934200d1704703f8011bf9e710
:020000040000fa
:1039d40003461a46013311780029fad1101a7047a8
:020000040000fa
:1039e40008b5fff7c9ff00f063f800f061f808bdff
:020000040000fa
:0e39f40008b5fff747ff003018bf012008bddf
:020000040000fa
:0e3a020008b500f02af8b0fa80f0400908bdbf
:020000040000fa
:0e3a1000a0f14103192b98bf40f02000704731
:020000040000fa
:0e3a1e00a0f16103192b98bf00f05f00704704
:020000040000fa
:0c3a2c0008b1014a906370476c0f002045
:020000040000fa
:0c3a3800014b1862596270476c0f0020af
:020000040000fa
:0c3a4400014b01221a7070478b1000200b
:020000040000fa
:0c3a500013460a466ff00041fff7dab998
:020000040000fa
:083a5c0008b5fff707ff08bde4
:020000040000fa
:083a640008b5fff77fff08bd64
:020000040000fa
:083a6c0008b5fff723ff08bdb8
:020000040000fa
:083a740008b5fff7c4ff08bd0f
:020000040000fa
:083a7c0008b5fff777fb08bd58
:020000040000fa
:083a840000487047fc1000200f
:020000040000fa
:073a8c00286e756c6c290027
:020000040000fa
:063a94000068fff781be8f
:020000040000fa
:063a9a004ff0ff30704701
:020000040000fa
:043aa000fef7ccbea3
:020000040000fa
:043aa4000020704747
:020000040000fa
:043aa8000020704743
:020000040000fa
:043aac00704700bfa0
:020000040000fa
:043ab000002070473b
:020000040000fa
:043ab40070477047a0
:020000040000fa
:0200000400807a
:044000003912003c35
:020000040000fa
:0200000400807a
:044004008000a82a66
:020000040000fa
:0200000400807a
:04400800ffffffffb8
:00000001FF
