:020000040000fa
:10000000f0ff0320c9210000932f00007f3400007f
:100010000737000047370000d3370000000000001a
:10002000000000000000000000000000672e00003b
:10003000db35000000000000672e0000793600006c
:10004000672e0000672e0000672e0000672e00005c
:10005000672e0000672e0000672e0000672e00004c
:10006000672e0000672e0000672e0000672e00003c
:10007000672e0000672e0000672e0000672e00002c
:10008000672e0000672e0000672e0000672e00001c
:10009000672e0000672e0000672e0000672e00000c
:1000a000672e0000672e0000672e0000dd3500007f
:1000b000672e0000672e0000672e0000672e0000ec
:1000c000672e0000672e0000672e0000672e0000dc
:1000d000672e0000672e0000672e0000672e0000cc
:1000e000672e0000672e00000000000000000000e6
:1000f00000000000672e0000792a0000792a000025
:10010000792a0000792a0000672e0000672e00007f
:10011000672e0000672e0000672e0000672e00008b
:10012000672e0000672e0000672e0000672e00007b
:10013000672e0000672e0000092900000929000031
:100140000929000009290000672e0000672e000021
:10015000672e0000672e0000000000000000000075
:10016000000000000000000000000000000000008f
:100170000000000000000000672e0000672e000055
:10018000672e0000672e0000672e0000672e00001b
:1001900000000000672e0000672e0000672e0000a0
:1001a000672e0000672e0000672e0000672e0000fb
:1001b000672e0000672e0000672e0000672e0000eb
:1001c000672e0000672e0000672e0000672e0000db
:1001d000672e0000672e0000672e0000672e0000cb
:1001e000672e0000672e0000672e0000672e0000bb
:1001f000672e0000672e0000672e0000672e0000ab
:10020000672e00000000000000000000672e0000c4
:10021000672e0000672e0000672e0000672e00008a
:10022000672e0000672e0000672e0000672e00007a
:10023000672e0000672e0000672e0000672e00006a
:10024000672e0000672e0000672e0000672e00005a
:10025000672e0000672e0000672e0000672e00004a
:020000040000fa
:10026000f8b500bff8bc08bc9e467047413000009e
:10027000f8b500bff8bc08bc9e4670471d300000b2
:020000040000fa
:08028000f0090000010000007c
:020000040000fa
:1002880010b584b09e4b1b78102b18d8dfe813f0fc
:100298001100340023004500a900660156006900da
:1002a8007c0098003001ba00d600f40012019201d7
:1002b800770103f039f820b9924b00221a7004b084
:1002c80010bd904b00221a708f4803f097f98c4ba1
:1002d80002221a70f3e702f0ddff18b9894b0022f9
:1002e8001a70ece7874b00221a70884803f086f9e9
:1002f800834b01221a70e2e702f0c0fc18b9814b67
:1003080000221a70dbe77f4b00221a70804803f046
:1003180075f97b4b03221a70d1e702f0bbff18b9bd
:10032800784b00221a70cae7764b00221a70774879
:1003380003f064f9724b06221a70c0e7122175485f
:1003480002f0b0f918b96f4b00221a70b7e76d4b7d
:1003580000221a70704803f051f9694b07221a708d
:10036800ade76e4b187802f0affb18b9654b002269
:100378001a70a4e7634b00221a70694803f03ef92b
:100388005f4b08221a709ae7664b93e803000190c6
:100398008df8081001a803f0fbfac1b201a802f019
:1003a800b7f918b9574b00221a7088e7554b002245
:1003b8001a705d4803f022f9514b09221a707ee742
:1003c80002f0d6fc18b94f4b00221a7077e74d4b54
:1003d80000221a70554803f011f9494b04221a708b
:1003e8006de702f057ff18b9464b00221a7066e70e
:1003f800444b00221a70454803f000f9404b0b2289
:100408001a705ce74a4b93e8030001908df80810d6
:1004180001a803f0bdfac1b201a802f0adf918b9fc
:10042800384b00221a704ae7364b00221a704148ae
:1004380003f0e4f8324b0c221a7040e701ab3e4a55
:1004480007ca03c323f8022b120c1a7001a803f081
:100458009ffac1b201a802f0c1f918b9294b0022cc
:100468001a702ce7274b00221a70344803f0c6f89c
:10047800234b0d221a7022e701ab314a07ca03c386
:1004880023f8022b120c1a7001a803f081fac1b2ea
:1004980001a802f0a3f918b91a4b00221a700ee746
:1004a800184b00221a70254803f0a8f8144b0e22a6
:1004b8001a7004e701ab234a07ca03c323f8022bc7
:1004c800120c1a7001a803f063fac1b201a802f075
:1004d80085f918b90b4b00221a70f0e6094b002277
:1004e8001a70164803f08af8054b0a221a70e6e6d5
:1004f80002f03efc40bb034b00221a70dfe600bf4f
:10050800781000208b100020c4140000dc140000b8
:10051800f01400002c390000041500008e10002093
:10052800181500002c1500003415000044150000b3
:1005380058150000601500007415000080150000b3
:10054800a0150000ac1500002d4b00221a702d4894
:1005580003f054f82c4b05221a70b0e602f09afe0c
:1005680018b9274b00221a70a9e6254b00221a70e9
:10057800264803f043f8244b10221a709fe6204bbc
:1005880000221a70224b1b781bb91f4b10221a70bd
:1005980095e61f4b1a701f4803f030f802f082ffef
:1005a8001d4b1870b0f1ff3f174b14bf0f221022dc
:1005b8001a7084e6194b03f58a7292e803000190d9
:1005c8008df80810164c144a92f9002003f58e7124
:1005d800204603f0edf801a803f0daf902232246d9
:1005e800c1b201a801f014fd18b9054b00221a7018
:1005f80065e6034b00221a70034b10221a705ee660
:100608008b1000204415000078100020dc14000036
:100618008d100020b81500008c100020c4140000b4
:040628007c10002022
:020000040000fa
:10062c002c1000201c00000000000000791000209d
:10063c0001000000000000008110002001000000fb
:10064c00000000007e1000200200000000000000ee
:10065c008410002001000000000000008510002024
:10066c0001000000000000008610002001000000c6
:10067c00000000005c1000200400000000000000de
:10068c000000002000050000000000007a1000208f
:10069c000200000000000000821000200200000098
:1006ac0000000000d40b00208000000000000000bf
:1006bc00871000200100000000000000140b002037
:1006cc00c000000000000000540c0020800000005e
:1006dc0000000000d40c002080000000000000008e
:1006ec006c0f00204000000000000000540d0020a2
:1006fc008000000000000000d40d002080000000ed
:10070c0000000000ac0f00204000000000000000c2
:10071c00481000200c000000000000008810002091
:10072c000100000000000000540e002064000000d6
:10073c0000000000891000200100000000000000f3
:10074c006010002004000000000000008010002059
:10075c0001000000000000008a10002001000000d1
:10076c0000000000641000200400000000000000e5
:10077c007c110020040000000100000000010000ba
:10078c0080110020040000000100000030303030e7
:10079c00ec0f00204000000000000000b80e00200c
:1007ac0064000000000000008b100020010000001d
:1007bc00000000007c10002002000000000000007f
:1007cc008c100020010000000000000078100020b8
:1007dc0001000000000000008d100020010000004e
:1007ec00000000008e10002001000000010000003d
:1007fc00c000000068100020040000000000000091
:10080c001c0f002050000000000000009010002081
:10081c006c000000010000009c10002098100020cb
:10082c009c1000200000000025000000080500209e
:10083c0000040000000000000000000000000000a8
:10084c00000000000000000000000000000000009c
:10085c00000000006d3a00000000000000000000e5
:10086c000000000000000000a928000000000000ab
:10087c00000000000000000000000000000000006c
:10088c00000000000005002008040000000000002b
:10089c005c1100202000000001000000010000009d
:1008ac000300000000000000000000000000000039
:1008bc000000000000000000541000205410002024
:1008cc0008000000000000006c1000200400000074
:1008dc000000000070100020040000000000000068
:1008ec00080900200c02000000000000fc10002091
:1008fc006000000001000000010000000300000087
:10090c0000000000000000000000000000000000db
:10091c00000000001d2a0000000000000000000084
:10092c0000000000593a00007b3a00000000000073
:10093c0000000000000000000000000000000000ab
:10094c00000000000000000000000000000000009b
:10095c0000000000000000007410002004000000e3
:10096c00000000000000000000000000444444446b
:020000040000fa
:10097c002de9f04fadb00027dff8e4a20391064655
:10098c001546b8464ff0ff3903990b78002b00f051
:10099c00f9800cabcde907890a938023cdf824802c
:1009ac000b9300240b5d0bb1252b26d134b12246c1
:1009bc00304602f0acfb039b23440393039b1a7851
:1009cc00252a40f0d78003f1010bcdf80cb0039829
:1009dc0003782b2b1ad025d8202b1bd0232b1dd0e2
:1009ec002a2b27d002f0acfa0990039b1a78303ae4
:1009fc00092a2ed801330393f7e70134d2e7079b7a
:100a0c0043f00103013007930390e0e7079b43f0a9
:100a1c000403f7e7079b43f00803f3e7079b43f056
:100a2c001003efe72d2bead0302bd9d1079b43f0e5
:100a3c000203e7e72b681a1d1b682a600130002ba4
:100a4c000390099305da079a5b4282f00102079240
:100a5c000993079bda0744bf23f002030793039b18
:100a6c001a782e2a0dd1581ccdf8208003905a7874
:100a7c002a2a25d1023303932b681a1d1b682a607e
:100a8c00089303a802f07cfb039b0190187802f0fa
:100a9c009bff6928019979d032dc632800f0c6806d
:100aac0019dc252800f0d080612853d025238df83f
:100abc001030cdf80cb0cdf81c80cde90898c0e012
:100acc0002f03efa0890039b1a78303a092ad8d8db
:100adc0001330393f7e7642858d06728e6dc2a46ed
:100aec0004a802f04afd002800f09c80039b5a1ccd
:100afc0003921b7804aa07a9304602f0afff38e036
:100b0c00702873d015dc6e2800f087806f28cdd14b
:100b1c002b46002204a801f085f8002800f0828002
:100b2c00039b04aa013307a93046039301f07ffd10
:100b3c001fe075283ad0782848d07328b6d1802980
:100b4c0070d1039b2a6801330393131d2b60126829
:100b5c0000235be02a4604a802f00ffd002861d0b8
:100b6c00039b5a1c03921b7804aa07a9304602f077
:100b7c0075ff04443c44a7426edd384b4f221a608b
:100b8c004ff0ff3738462db0bde8f08f2b460122d1
:100b9c0004a801f047f8002844d0039b04aa0133b1
:100bac0007a93046039301f03bf9e2e72b460022fc
:100bbc0004a801f037f8002834d0039b04aa0133b1
:100bcc0007a93046039302f001f8d2e72b46002226
:100bdc0004a801f027f828b3039b5a1c03921b7836
:100bec0004aa07a9304600f005fdc2e72b460022f7
:100bfc00f02104a801f016f8a0b1039b0133039374
:100c0c00dde90423134306d10023524607a93046dd
:100c1c0001f084ffade77823e2e72b463a1904a8ec
:100c2c0001f050fc039b01330393a3e78029f9d116
:100c3c00039b013303932b681a1d1b682a608df8e4
:100c4c001030012304aae1e78029ebd1039b8df836
:100c5c00100001330393f4e7274695e6701000204b
:040c6c0096370000b7
:020000040000fa
:100c70002de9f04f099f154604468e461e46002b6f
:100c800040f0cc808a42b2fa82fc4cd9bcf1000f11
:100c90000bd0ccf1200801fa0cfe20fa08f802fa79
:100ca0000cf548ea0e0e00fa0cf44fea15491ffa4b
:100cb00085f8befbf9fa210c09fb1ae30afb08fbd5
:100cc00041ea03439b452ad9eb180af1ff3004d2cd
:100cd0009b4502d9aaf102002b44a3eb0b03a4b25b
:100ce000b3fbf9f209fb123302fb08f844ea0344b0
:100cf000a04516d92c1902f1ff3303d2a04501d922
:100d0000931e2c44a4eb080443ea004027b124fac4
:100d10000cf400233c607b603146bde8f08f504608
:100d2000dbe71346eee702b9ffdebcf1000f2ed180
:100d30008b1a01264fea154eaab2b3fbfef8210c1e
:100d40000efb183308fb02f941ea0343994561d9c8
:100d5000eb1808f1ff3004d2994502d9a8f102003e
:100d60002b44a3eb0903a4b2b3fbfef10efb11333a
:100d70004a4344ea0344a2424ed92c1901f1ff33fd
:100d800003d2a24201d98b1e2c44a41abce7ccf199
:100d9000200e02fa0cf521fa0ef901fa0cf320faf2
:100da0000efe4eea03034fea154800fa0cf4b9fbb5
:100db000f8f11ffa85fe08fb1192180c01fb0ef6e4
:100dc00040ea0242964221d9aa1801f1ff3003d22b
:100dd000964201d9881e2a44921b9bb2b2fbf8f9b5
:100de00008fb192209fb0efe43ea02439e450fd978
:100df000eb1809f1ff3604d29e4502d9a9f102068b
:100e00002b44a3eb0e0346ea004693e70846e3e7cc
:100e10004e46f6e74046a4e70b46b6e78b4206d9b6
:100e2000002f7ed00026c7e90001304674e7b3faf0
:100e300083fcbcf1000f0fd18b4201d3824209d851
:100e4000841a61eb030e0120002f6dd0c7e9004e1c
:100e5000002661e76046f7e7ccf1200e03fa0cf3b9
:100e600022fa0ef521fa0ef41d4301fa0cf320fad2
:100e70000ef10b434fea154a00fa0cf6b4fbfaf9ef
:100e80001ffa85f80afb19401c0c09fb08f144ea1b
:100e90000044a14202fa0cf23fd92c1909f1ff30ab
:100ea00004d2a14202d9a9f102002c44641a9bb2d7
:100eb000b4fbfaf90afb194409fb08f843ea0441b8
:100ec00088452cd9691809f1ff3304d2884502d925
:100ed000a9f10203294443ea0040a1eb0801a0fb69
:100ee00002894945c2464c4602d306d1464504d242
:100ef000b8eb020a69eb05040138afb1b6eb0a039f
:100f000061eb040606fa0efe23fa0cf34eea030325
:100f100026fa0cf6c7e900369ae74846c6e74b467c
:0c0f2000d9e73e463846f7e63e46f5e6c7
:020000040000fa
:100f2c002de9f04f85b0974b1c88a4b2964b1b78db
:100f3c00002b33d0944b00221a70924b1a88934b8f
:100f4c001b681344b3f5a06f44d38e4d28882a88b0
:100f5c008f4e904fc2f5a0623946304402f0f4fc3b
:100f6c0029882a88894b1b68a3f5a063c1f5a06169
:100f7c001a443944304602f0e7fc844b1b68814a22
:100f8c0011880b449bb2138013889bb2b3f5a06fee
:100f9c0004d31388a3f5a0639bb213807e4b1b88ec
:100fac00a34288bf4ff4a0647c4a12787c49b1f804
:100fbc0000b07c4908787c490e78002102918a4661
:100fcc00019188468e4672494ff0010c6746cdf868
:100fdc000ca02ce06b4b1b886c4a12686d496c485a
:100fec00184402f0b1fcc8e7cd5cedb2312d0cd049
:100ffc0001339db2abb29c420dd911f805e05ffafa
:10100c008efe0135bef1310ff4d101339bb2e246b5
:10101c003e46be460be0e64609e0cd5cedb2352d12
:10102c000cbf0226002601339bb2e246be46a34209
:10103c0080f08580042efad801a555f826f000bf63
:10104c00f50f000027100000611000007710000061
:10105c00f7100000cd5cedb23b2d0cbf0326002633
:10106c0001339bb2e246be46e1e71d4610e0013378
:10107c009bb2e246042601970022b8460398be466e
:10108c00d5e701339bb201351ffa85fe74450dd9a6
:10109c00abb211f805e05ffa8efebef13b0ff0d15a
:1010ac000130c0b20328e2d0b846eae7e646bee714
:1010bc00cdf804c0be46bae7bef1000f01d03649e8
:1010cc000b80b8f1000f01d0364b1870019b0bb19f
:1010dc00324b1a700023344a1370314a1380334a4e
:1010ec0013702e4b93f9000049e09946cd5cedb29c
:1010fc003b2d18d001339db211f8093002eb82025e
:10110c0003eb4202303ad2b2abb29c42d0d9a946e0
:10111c0011f805e05ffa8efe0135bef13b0febd105
:10112c00cdf804c0be460bf1010b1ffa8bfbbbf1d3
:10113c00640fc1d0cdf808c0ba46002677e7bef1df
:10114c00000f01d014490b80b8f1000f01d01549e4
:10115c000870019909b111490a70baf1000f01d058
:10116c00114a1670029a12b10d4aa2f800b0b3f5ea
:10117c00a06f02bf084b00221a804ff0ff3005b061
:10118c00bde8f08f7a100020851000205c10002044
:10119c0000000020d40b00208210002079100020c9
:1011ac007e10002087100020811000208610002067
:020000040000fa
:1011bc002de9f04f87b0039003a801f069ff0028d8
:1011cc0003da002007b0bde8f08f039b1b095d1efe
:1011dc00202d0fd9023b5e4ab3f5007f35bf02ebe1
:1011ec00d30302ebd31313f8045c13f8045c34bf81
:1011fc00013511350123a5f12001c5f1200203fab7
:10120c0001f923fa02f203fa05f8d8f1000849eac9
:10121c00020969eb4909cde90089dff84081dff863
:10122c0030914746d8e90023009902ea010a019956
:10123c0003ea010b5aea0b0342d1039b05a81033b6
:10124c00059302f039fb18b9424b0c221a60b9e72e
:10125c00d8f80852a84206d0059b103b05930123f1
:10126c0000f110058360059bea18012143f001038e
:10127c00b5f1080442f8083c42f8041cc7f80822ef
:10128c0045f8043c9dd0204602f094f888b155f8fe
:10129c00083c55f8041c23f00103e31a5a6822f0a9
:1012ac0001020a445a6055f8041c21f001016250f5
:1012bc001c462046039902f0c5f804f1080081e7aa
:1012cc005446254bbaf1000f34d1cbf1000000eaa3
:1012dc000b00434309ebd36393f83c602036304654
:1012ec0002f00cfa731c57f8334007ebc303083bae
:1012fc009c4297d0272e26dd0235ae4201dc3f2ed4
:10130c0021d16268039922f00102551a284601f096
:10131c006fff864217d1e068a6686318d8609e609c
:10132c0083609868c36041f0010060505d60a55017
:10133c006060bee7caf100002040434309ebd36371
:10134c0093f83c60cbe73146204601f013fcb0e744
:10135c00c02900007010002029e66b070809002046
:020000040000fa
:10136c0070b50546484b1a689ab10021474e00e00b
:10137c000246100902f00f03092b94bf30333733a8
:10138c00ccb2335501310f2af2d8414a13603e4b8f
:10139c0018604049284602f0dbf838b100233e4a79
:1013ac0013703e4a13703e4a137070bd3d49284677
:1013bc0002f0cef818b13a4b01221a70f5e73a490f
:1013cc00284602f0c5f8002847d0354b00221a7089
:1013dc00681e364b03f1310110f8012f03f8012b75
:1013ec009942f9d1314c04220821204602f06ef8c2
:1013fc0008220d21204602f069f808221621204609
:10140c0002f064f808221f21204602f05ff8042243
:10141c002821204602f05af804222d21204602f001
:10142c0055f84f2002f024fa542002f021fa412002
:10143c0002f01efa412002f01bfa2c2002f018fade
:10144c00302002f015fa312002f012fa0d2002f0d1
:10145c000ffa0a2002f00cfaa7e71549284602f009
:10146c0077f830b10d4b01221a700d4b00221a7017
:10147c009be71049284602f06bf8002895d0064be4
:10148c0001221a7091e700bf7c110020801100200e
:10149c0064100020683200008910002088100020a1
:1014ac008a1000207432000080320000540e00209c
:0814bc008832000094320000a8
:020000040000fa
:1014c400524e42443435315f494e495449414c49a6
:1014d4005a45440d00000000456e74657265642031
:1014e400434d44204d6f64650d00000046616374f4
:1014f4006f727920526573657420446f6e650d00b8
:10150400446576696365204e616d65205365740d8d
:101514000000000053657276696365204269746d4a
:101524006170205365740d003033343000000000c6
:10153400417070656172616e6365205365740d005e
:101544005265626f6f7420436f6d706c657465646f
:101554000d000000313830440000000053657276fd
:101564006963652055554944205365740d00000096
:10157400324133372c31302c3035000053657276cc
:101584006963652043686172616374657269737429
:10159400696373205365740d0000000032413338d1
:1015a4002c30322c30350000324133392c30382c79
:1015b40030350000212121204d6561737572696efb
:1015c400672048656172742052617465202121216d
:1015d4000d0000003130303200000000257800009a
:1015e400524e42443435315f48454152545f524172
:0c15f40054455f50524f46494c450d00d5
:020000040000fa
:101600002de9f04fd1e901590e68d1f80c808bb06b
:10161000002da8bf26f002060393b8bf012516f0df
:10162000100302900f460493d2e900ab37d05aea78
:101630000b0334d0a9f102033c6916f0080104f150
:10164000ff3405914ff0000108f8041006f0020184
:101650000691039918bf03f1ff335b1b4139012c3d
:101660001fdc049b002b4cd1059b1bb1013c2023ac
:1016700008f804303a690096013a4b46121b08eb11
:101680000401029800f0a6fe029b5b68db0503d50f
:101690007b689842b8bf18460bb0bde8f08f4b4648
:1016a000cae75aea0b0007d1002d05dc58190028bb
:1016b000d7dd06980028d4d00af00f000928d4bf3f
:1016c00030305730192904f1ff340ed840f0200c87
:1016d000acf1610cbcf1190f07d8cde908310792c4
:1016e00002f07ff9dde90831079a08f804004feab3
:1016f0001a1040ea0b704fea1b1c013d8246e3467c
:10170000ade7d2e900231343aed008eb0403039afc
:0e17100003f8012c023c302308f80430a4e753
:020000040000fa
:02171e00704712
:020000040000fa
:101720003c4b00221a7403f500633b4a9a621a4646
:10173000536813f0100ffbd1384b4222c3f88420ba
:101740001a46d2f8843013f0400ffad0344b0022fe
:101750009a6377225a631a46d36b13f0040ffbd1b6
:101760002f4b022283f830201a46d36b13f0020f5e
:10177000fbd12b4a136c03f00303032bfad1294b43
:1017800001225a711a46d37813f0010ffbd0234b74
:10179000254a1a621a46536813f0040ffbd11f4bf7
:1017a000224a5a621a46536813f0080ffbd11b4baa
:1017b0004122c3f890201a46d2f8903013f0400f1f
:1017c000fad0164b4122c3f89c201a46d2f89c301e
:1017d00013f0400ffad0114b4122c3f808211a46ea
:1017e000d2f8083113f0400ffad00c4b4122c3f865
:1017f0000c211a46d2f80c3113f0400ffad0094be5
:101800006ff07f421a6141f2ff725a6103221a623d
:10181000704700bf0014004006013000001c00406b
:10182000001000400008004007010100070102000d
:020000040000fa
:101830002de9f84300286ad050f8043ca0f10804d0
:1018400023f00106a719a259934200d0ffde7a685f
:1018500023681340da070fd4204601f0b1fd0028b9
:1018600057d1384601f04efe0028f0d07b6823f0b7
:1018700001031e441f44eae746f00103636030465b
:101880003b6001f0bbfc054601f03eff23687a682f
:101890001340db07e0d5dff88ce0dee90089c5f115
:1018a000200ca5f1200228fa05f009fa0cfc29fa0f
:1018b00002f240ea0c001043012100ea0102002379
:1018c0001343c5f120007346a5f1200212d121fa7d
:1018d00000f001fa02f2a94042ea00021ebfdef85f
:1018e00000000143cef8001022b1def804100a43d4
:1018f000cef80420681c03ebc003a3f10802666065
:101900003e60a2605a68e2605c60e3689c60bde88b
:10191000f883236823f00103e41a636823f00103ca
:081920001e449ee708090020a7
:020000040000fa
:101928002de9f047002966d00e460024334d344b8c
:1019380000f1010c334fa64606e007f801909a60c3
:10194800621c013496424cd96a6802f00702012ae7
:101958001cd09968d3f80c804a1cd3f810904a45db
:1019680028bf002290453dd010f80490d5f8048097
:1019780008f00708b8f1010fdfd14fea410807f86e
:10198800119008f1010107f801e0d8e7d3f80880c1
:10199800d96808f10102d3f810904a4528bf0022ff
:1019a80091421fd01cf8149010f8141041ea092134
:1019b800d5f8049009f00709b9f1010f05d0c9b2ab
:1019c80007f808109a60621cbbe74fea48095ffafb
:1019d80081fa07f818a009f10108090a07f80810a0
:1019e800f0e7144601f022ff10b1044b01229a756a
:1019f8002046bde8f0870c46f4e700bf0030004001
:081a0800ac0f0020d40d0020fa
:020000040000fa
:101a10002de9f0412b4c2c4f4ff086464ce0226aca
:101a2000002a39d0616a236a40469847a36a013385
:101a3000226b934228bf00232ee0a16a4a00e8b23d
:101a400007f811000132c5f30725bd542fe001f05e
:101a5000d9fe236a002b2fd0616a94f83c3033b151
:101a6000a36b984228d3236a0020984724e0a36bf5
:101a7000984221d1236a002098471de0337e13f05d
:101a8000040f1cd0b56aa36a0133226b934228bfae
:101a90000023e26a9a42c2d0e26a9a42eed07268a9
:101aa00002f00702012ac8d0a26aedb2bd54a362b7
:101ab00094f83430002bcad14ff00108dee7bde8be
:0c1ac000f08100bf6c0f0020540c0020cf
:020000040000fa
:101acc00f8b52a4e2a4c4ee0226a002a3ad0616ab6
:101adc00236a38469847a36a0133226b934228bf86
:101aec0000232fe0a06a4200efb2224901f81070e7
:101afc000132c5f307258d5430e001f0a1fe236ab5
:101b0c00002b30d0616a94f83c3033b1a36b98420f
:101b1c0029d3236a0020984725e0a36b984222d151
:101b2c00236a002098471ee0337e13f0040f1cd06c
:101b3c00b56aa36a0133226b934228bf0023e26a81
:101b4c009a42c1d0e26a9a42eed0726802f0070261
:101b5c00012ac7d0a26aedb206498d54a36294f84b
:101b6c003430002bc9d10127dee7f8bd003000402e
:081b7c00ac0f0020540d002005
:020000040000fa
:101b840038b5224b1b787bb1214b1b784bb3214bcf
:101b94001988214a214813889bb28b4202d10378c9
:101ba400002bf8d0012038bd00211d4801f024ff8e
:101bb4004ff4a0611b4800f0cbfb0a2001f016ff94
:101bc4000021012001f028fe01f09afe164c802528
:101bd4006561012001f040faa5610c4b01221a70e5
:101be400d2e741f2883001f037fa4ff4a0620021c5
:101bf4000c4801f0c7fe064b01221a700023064a66
:101c04001380044a1380054a1370c0e7841000202f
:101c140086100020821000207a10002085100020f9
:0c1c24008134000000000020008000411e
:020000040000fa
:101c3000882910b536d012dc812943d003dc8029f5
:101c400040d0002010bd82290ed08429f9d1196816
:101c500002b30a1d1a60b1f90020d3171ee0a029b3
:101c60002bd00bdc9029ecd11968073121f007014a
:101c700001f108021a60d1e900230fe0c02901d068
:101c8000f029ded11a68111d196013680360002362
:101c9000436005e00a1d1a600a880023c0e900239a
:101ca0000120cfe7196822b10a1d1a6091f90020be
:101cb000d3e70a1d1a600a78efe71a68111d196048
:101cc0001268cae719681ab10a1d1a600a68c4e7df
:0c1cd0000c1d1c600b68c0e90032e1e74d
:020000040000fa
:101cdc0030b583b0264c274d4ff0864214e0e95cba
:101cec008df8061001332169994298bf0023e360f7
:101cfc00536803f00703012b14bf9df80630bdf8a1
:101d0c0006309362237dbbb9137e13f0010f2dd0e7
:101d1c00a168e368994225d0516801f007010129b7
:101d2c00ddd1590015f813008df806000131695cfe
:101d3c008df807100133d6e701f0cafd2368002b9c
:101d4c00cad06168237f33b1a3699842c4d3236896
:101d5c0003209847c0e7a3699842bdd123680320ac
:101d6c009847b9e74ff0864301221a7503b030bd8e
:081d7c006c0f0020d40c0020c4
:020000040000fa
:101d840070b582b0254d264c264e14e0f25c8df8d9
:101d94000620013322699a4298bf0023e3606b68ee
:101da40003f00703012b14bf9df80630bdf806307d
:101db400ab62237dbbb92b7e13f0010f2cd0a2683c
:101dc400e3689a4225d06a6802f00702012addd14d
:101dd4005a0016f813108df806100132b25c8df813
:101de40007200133d6e701f081fd2368002be2d000
:101df4006168237f33b1a3699842dcd3236803204d
:101e04009847d8e7a3699842d5d123680320984717
:101e1400d1e7024b01221a7502b070bd00300040b8
:081e2400ac0f0020d40d0020da
:020000040000fa
:101e2c002de9f041d2e900230c4686b007465fea63
:101e3c00d37820684968a5680590e66841d052427d
:101e4c0063eb4303002908db20f002000590b8f196
:101e5c00000f02d1059948072ad5691e05a80290e2
:101e6c000a20cde90010204600f06afbb8f1000f03
:101e7c0002d1059b59071fd5b8f1000f00f1ff30b7
:101e8c0014bf2d232b2333542269059b0093013a55
:101e9c002b46121a3118384600f096fa7b68db058f
:101eac0003d563689842b8bf184606b0bde8f08108
:101ebc000807d2d42946d1e71a07e5d501382023e3
:081ecc00e1e70029c0dac5e7d7
:020000040000fa
:101ed4002de9f84f06460f4691469a46234ce5688d
:101ee40001e063689847a8470028fad1394630468c
:101ef40001f02ef90024dff87480012704e0d8f8fb
:101f04001c30384698470134a84706460028f6d0c6
:101f1400412cf4d9dff8588047460024dff84cb050
:101f240005e0dbf80430984707f8010b0134a847b3
:101f340002460028f5d1a24513d1acb10c4b197857
:101f440099f8003099420cd109f101034c44a342a1
:101f540006d013f8011b18f8010f8842f7d000e0ef
:101f640032461046bde8f88f3246fae79c36000048
:041f7400b80e002083
:020000040000fa
:101f7800254ad36823f4e0631b041b0c43f0bf63ba
:101f880043f40033d360bff35f8f62b61f4be02189
:101f980083f81b134ff00060186083f82e134ff47a
:101fa8008040586083f82f134ff40040586083f83e
:101fb80030134ff48030586083f831134ff40030f9
:101fc800586083f83e134ff08040586083f83f1301
:101fd8004ff00040586083f840130120986083f860
:101fe800411302219960536a43f480235362536971
:101ff80043f010035361536a43f400335362536a46
:1020080043f480335362704700ed00e000e100e0e4
:020000040000fa
:10201800f0b585b007460e46154601ac204a07cafa
:1020280003c422801f4a532111704821517057213f
:1020380091702c21d17056b17a1e1b49701e57fa27
:1020480080f012f8014f01f8014f8242f9d1154a88
:10205800311dc9b22c205054711dc9b230205054c2
:102068000636f6b290555bb1691e02f10a005a1e97
:1020780055fa82f211f8014f00f8014f9142f9d157
:10208800084803f10b02d2b20d2181540c33dab2a5
:102098000a23835401aa0f21fff718ff05b0f0bdea
:0c20a800e82f0000ec0f0020ef0f0020dc
:020000040000fa
:1020b4002de9ff41836946690093f61acde9016170
:1020c40004461746039216444ff002086d464246f2
:1020d4002946206801f08af9b04209d1d4e90232d4
:1020e400c4e905331a44a262384604b0bde8f0815d
:1020f40000280dda6268002342f01002b8f1020fe2
:10210400a362c4e90533626015d06b68ff1aebe77c
:102114006b68984288bf0835a6eb000688bfc01ad2
:102124002b6803442b606b68a3eb000088bf08f1a5
:0a213400ff386860cbe71f46d6e7ce
:020000040000fa
:02213e007047e8
:020000040000fa
:102140001f4a137843f001031370536813f0010f13
:10215000fbd11b490b7843f010030b700022ca61be
:102160004ff010430b624ff400430b634a630b6163
:10217000144b10221a819a821a849a851a87a3f81e
:102180004420a3f85020a3f85c20a3f86820a3f80b
:102190007420a3f88020a3f88c20a3f89820a3f83b
:1021a000a420a3f8b0200f22a3f8bc200b7843f0a2
:1021b00002030b700a46536813f0020ffbd17047fd
:0821c00000280040140b002070
:020000040000fa
:1021c80008b5194b9847194b9847eff3108172b629
:1021d800174ad2f8883043f47003c2f88830bff346
:1021e8004f8fbff36f8f01b962b6124a936823f01d
:1021f800010393601346da6812f0010ffbd10d4b0f
:1022080024225a6001229a6001f028fc0a4b23f02c
:102218007f03074a9360094b9847094b9847094b36
:10222800984701f099f8fee7db380000db3800003a
:1022380000ed00e00060004100000000652900009a
:08224800db380000db38000068
:020000040000fa
:102250002de9f0411c4ad36a956a89b30e46ab4218
:1022600008bf002227d00122dff864c0174ca0f17c
:10227000020e0138144f0ce0e15c81540133396bdc
:10228000994298bf0023b24214d2511cab4212d0e3
:102290000a46dcf8041001f007010129ecd15900cd
:1022a00014f813800ef812800131615c00f81210ee
:1022b0000133e4e71d46044bdd621046bde8f081c2
:1022c0001d460a46f7e700bfac0f0020540d002062
:0422d000003000409a
:020000040000fa
:1022d4004ff086431c4a1a604ff622029a814ff44b
:1022e40040325a601a46d369002bfcd14ff0864223
:1022f400136843f002031360d369002bfcd1134b22
:1023040000221a629a62da6283f8342083f83c204d
:102314009a63da871a609a60da601a751a779a6192
:102324004ff086435b6803f00703012b074b14bf90
:10233400802240221a631a614ff0864380229a75e4
:1023440004229a75704700bf040110406c0f0020ee
:020000040000fa
:102354002de9f0411c4ad36a956a89b30e46ab4213
:1023640008bf002227d001224ff0864c174ca0f161
:10237400020e0138144f0ce0e15c81540133396bd7
:10238400994298bf0023b24214d2511cab4212d0de
:102394000a46dcf8041001f007010129ecd15900c8
:1023a40014f813800ef812800131615c00f81210e9
:1023b4000133e4e71d46044bdd621046bde8f081bd
:1023c4001d460a46f7e700bf6c0f0020540c00209e
:020000040000fa
:1023d4002de9ff471d460c9b13f0010906468a466a
:1023e400144601d195420bd822465146304600f09e
:1023f40092fea54204d82546284604b0bde8f087dd
:102404002f1b102f3a464ff0200128bf1022684698
:10241400b84601f0b7fab8f10f0f11d83b096ff0c5
:102424000f0202fb03726946304600f074feb9f1f4
:10243400000fe1d122465146304600f06cfedbe746
:1024440010226946304600f066fea8f11008e2e763
:020000040000fa
:102454001b4b1c4a1a604ff622029a814ff44032f9
:102464005a601a46d369002bfcd1154a136843f00d
:1024740002031360d369002bfcd1134b00221a62b0
:102484009a62da6283f8342083f83c209a63da870c
:102494001a609a60da601a751a779a61084b5b6859
:1024a40003f00703012b084b14bf802240221a6358
:1024b4001a61034b80229a7504229a75704700bff3
:0c24c4000030004004011040ac0f00206c
:020000040000fa
:1024d000842910b523d00cdc812903d0822913d0a4
:1024e00080290bd119680c1d1c600b6803601a60f1
:1024f00013e0902921d003dc882917d0002010bddb
:10250000a029efd0c029ece719680c1d1c600b68ee
:102510000360d1171046c3e900010120efe71968f5
:102520000c1d1c600b6803601a80f6e719680c1d0f
:102530001c600b6803601a70efe719680c1d1c60c3
:0c25400009680160d317c1e90023e6e739
:020000040000fa
:10254c002de9f84f04460c9f6668d4f80cb024694a
:10255c0010463a68013c002502f0020a0b9a0bf86f
:10256c000450002e1946b8bf0126012390464feaad
:10257c00e279002c03dcd3b12046bde8f88f50ea99
:10258c00010209d1721b002a06dc0a9a521b002a8e
:10259c00f1ddbaf1000feed042464b4600f03affa7
:1025ac00013c134630320bf804200135e1e73b685f
:0825bc0023f010033b60dfe790
:020000040000fa
:1025c400f8b5846a05460f46164654b1ab6a6a6983
:1025d4009b1ab3420bd2324639462846fff768fdb0
:1025e400f8bd01f055f90028f0d02046f8e7002e98
:1025f400f1d095f93430002b1bdbdbb23446621e7c
:10260400b95c994212d1224639462846fff750fd5b
:10261400a042e5d32744341b22463946686901f0b9
:1026240097f96b691c446c613046d9e71446002a5b
:06263400e5d13446f0e799
:020000040000fa
:10263a00f0b50c4649682368a768e56887b00029a1
:10264a000593a4bf23f00203059305ab0293082365
:10265a00cde900730646d2e900232046fff771ff51
:10266a00059bd90642bf00f1ff3030232b54059b4e
:10267a001a0742bf00f1ff3020232b542269059b21
:10268a000093013a3b46121a29183046fff79dfe7d
:10269a007368db0503d563689842b8bf184607b06c
:0226aa00f0bd81
:020000040000fa
:1026ac0030b585b005460c4601ab154a07ca03c3c5
:1026bc001a80144b53221a704e225a702c229a7084
:1026cc00dcb16b1e104a601e55fa80f013f8011f26
:1026dc0002f8011f8342f9d123460a48da1cd2b210
:1026ec000d2181540433dab20a238354611d01aaeb
:1026fc00c9b2fff7e9fb05b030bd2346ede700bfdb
:0c270c00e82f0000ec0f0020ee0f002072
:020000040000fa
:1027180030b585b005460c4601ab144a07ca03c359
:102728001a80134b53221a7044225a7041229a700d
:102738002c22da7054b16b1e0e4a601e55fa80f0d6
:1027480013f8011f02f8011f8342f9d10848231d1d
:10275800dbb20d22c2540534e4b20a2101550b46fe
:1027680001aafff7b3fb05b030bd00bfe82f00009a
:08277800ec0f0020ef0f002020
:020000040000fa
:1027800030b585b005460c4601ab134a07ca03c3f2
:102790001a80124b50221a7053225a702c229a70af
:1027a00054b16b1e0e4a601e55fa80f013f8011fdb
:1027b00002f8011f8342f9d10848e31cdbb20d2265
:1027c000c2540434e4b20a23035501aa0921fff7d5
:1027d00081fb05b030bd00bfe82f0000ec0f0020ea
:0427e000ee0f0020d8
:020000040000fa
:1027e40030b585b005460c4601ab134a07ca03c38e
:1027f4001a80124b50221a7043225a702c229a705b
:1028040054b16b1e0e4a601e55fa80f013f8011f76
:1028140002f8011f8342f9d10848e31cdbb20d2200
:10282400c2540434e4b20a23035501aa0f21fff76a
:102834004ffb05b030bd00bfe82f0000ec0f0020b7
:04284400ee0f002073
:020000040000fa
:1028480070b5144b144a0021934206d3134a00254d
:10285800d2e9003123b919b970bd03f8011bf3e7b8
:10286800946858180c3294b11446834208d111f078
:10287800030318bf012303eb910102eb8102e7e791
:1028880014f8016b03f8016befe703f8015b83426f
:10289800fbd1dde700000020000000202c0600002e
:020000040000fa
:1028a8007fb5c36800911546002b18bf013a019205
:1028b80082680446cde902230e4602226946006872
:1028c80000f062fd002808dc00f0180383f008021d
:1028d80063681343636005460fe0019a8242fad2a7
:1028e800a368e363801ae268184420642ab15a1c7a
:1028f800e2632e441b7806f8013c284604b070bdfc
:020000040000fa
:1029080008b54ff086439b7d0bb34ff08642137e8c
:10291800dbb2927d12f0800f1ad14ff08642137eff
:10292800dbb2927d12f0010f04d013f0010f01d039
:10293800fff7d0f94ff08642137edbb2927d12f09a
:10294800040f04d013f0040f01d0fff75df808bda1
:0c29580013f0800fe1d000f0e3f9dee79f
:020000040000fa
:102964000e4a38b5002313600d4a0e4c13600e4a0c
:102974000e4d13600e4a13600e4a13600e4a5362e2
:1029840013610123936001f00df800f0eaffac42fb
:1029940000d338bd54f8043b9847f8e76c10002086
:1029a400280f00206c020000240f00207002000099
:0c29b4001c0f0020200f00202c0f002022
:020000040000fa
:1029c00020212223242425252626272728282828b5
:1029d000292929292a2a2a2a2b2b2b2b2c2c2c2c4f
:1029e0002c2c2c2c2d2d2d2d2d2d2d2d2e2e2e2e17
:1029f0002e2e2e2e2f2f2f2f2f2f2f2f000117028d
:102a00001d1813031e1b190b1408040d1f161c128e
:0c2a10001a0a070c1511090610050f0e1c
:020000040000fa
:102a1c0038b50d46044608b9002038bd43689b06fe
:102a2c0007d5d0e905239a4216d80023c4e905330b
:102a3c00a362d4e90f13994204d20122c91a206867
:102a4c0001f012f80023c4e90f33002de4d0206804
:102a5c00bde8384000f0fdbf0022c36a114698471c
:0c2a6c006369002be1d14ff0ff30d6e78a
:020000040000fa
:102a780008b5144b9b7df3b1124a137edbb2927ded
:102a880012f0800f18d10f4a137edbb2927d12f03c
:102a9800010f04d013f0010f01d0fff76ff9094ab5
:102aa800137edbb2927d12f0040f04d013f0040ff2
:102ab80001d0fff707f808bd13f0800fe3d000f04e
:082ac800cff9e0e70030004007
:020000040000fa
:102ad00010b584b0034601ac114a07ca03c4228072
:102ae0001a0910495320087048702c208870092a50
:102af00094bf303257320b49ca7003f00f03092bd1
:102b000094bf30335733074803710d2343710a23b1
:102b1000837101aa0721fff7ddf904b010bd00bfe2
:082b2000e82f0000ec0f00207b
:020000040000fa
:102b28002de9ff41134dd1f80080af88adf80c7046
:102b380006462868029002aca8798df80e00002a93
:102b480018bf1446d1e901571a461bb9204600f0b0
:102b58001fff0246002d02dbaa4228bf2a46cdf8f5
:102b680000803b4621463046fff730fc04b0bde804
:082b7800f08100bf503a00009b
:020000040000fa
:102b800070b5d0e90245a54217d10122a1f1200379
:102b9000c1f1200622fa06f602fa03f333438a4013
:102ba000db43d6431ab10b490a6832400a605a1c0b
:102bb0001fbf084a51680b4053604368ac6043f044
:102bc000010223f00103e5604260c25842f00102b5
:082bd000c25070bd080900208d
:020000040000fa
:102bd800f0b50c4649682368a668e76887b00029fd
:102be8000593a4bf23f00203059305ab02930a23c0
:102bf800cde900630546d2e900232046fff7a2fc91
:102c08002269059b0093013a3346121a391828465f
:102c1800fff7dcfb6b68db0503d563689842b8bf38
:062c2800184607b0f0bde4
:020000040000fa
:022c2e007047ed
:020000040000fa
:102c3000134bc0221a6048f280021a61002183f807
:102c4000461083f84710012283f8482083f8492072
:102c5000052083f84f0083f83310222083f83400d6
:102c600083f8371083f8cc2083f8cd2083f8d02068
:102c700083f8d12083f8b60083f8b800704700bf0e
:042c8000008000418f
:020000040000fa
:102c840030b589b001ac104d0fcd0fc495e80700e5
:102c940084e807000d4853230370462343702c2314
:102ca40083703223c3700d2303710a2343711c23e1
:102cb40001aa0621fff70cf90446054bdb69fa204b
:102cc4009847204609b030bd00300000ec0f0020ca
:042cd4009c3600002a
:020000040000fa
:102cd80010b370b506460d4600f00efbd5b10024c2
:102ce8000e4a137e13f0040ffbd0538b13f0070f1b
:102cf8000bd1536803f00703012b936a14bf3355b4
:102d080026f814300134a542ebd1a54214bf0020a7
:102d1800012070bd2c46f8e70020704700040043ee
:020000040000fa
:102d280008b54ff086435b8b13f0070300d108bd4d
:102d38000e4ad3874ff0864380221a7607225a8399
:102d48001b7e13f0040f06d04ff086439a6a1a7e52
:102d580012f0040ffad1054b1b6a002be7d0034b86
:102d6800596a1b6a02209847e1e700bf6c0f0020f0
:020000040000fa
:102d780010b584b001ab0f4a07ca03c323f8022b6e
:102d8800120c1a700c48522303702c234370312301
:102d980083700d2303710a2343710b2301aa0521b4
:102da800fff794f80446054bdb69fa20984720465c
:102db80004b010bdf42f0000ec0f00209c3600007a
:020000040000fa
:102dc80030b589b015464ff0ff32019202f2031276
:102dd800029200b96846cde9030151b14c1e0029a1
:102de800059408da094b4f221a604ff0ff3009b0fa
:102df80030bd0c46f3e700220270cde906001a4602
:102e0800294601a800f0c6fcf1e700bf70100020b9
:020000040000fa
:102e180013b5836a8df80710044673b16369a26a13
:102e2800934212d3e36a01220df107012046984725
:102e3800012806d19df8070005e000f027fd0028cd
:102e4800ecd04ff0ff3002b010bd9df8070094f9a8
:0e2e580034209042e6d05a1c62611870f3e7f5
:020000040000fa
:022e6600fee785
:020000040000fa
:102e680008b5104b5b8b13f0070300d108bd0e4a61
:102e7800d3870c4b80221a7607225a831b7e13f0c5
:102e8800040f05d0074b9a6a1a7e12f0040ffad184
:102e9800054b1b6a002be9d0034b596a1b6a0220b9
:0c2ea8009847e3e700300040ac0f00202a
:020000040000fa
:102eb40008b500f057fd0f4b1b680021186800f09f
:102ec40059fd0d4b1b680021186800f053fdfff7f6
:102ed400adfefef723fcfef720fcfff7b9fa00f085
:102ee400b7fb00f0a5f9fff7f3f9fff727f9fff7b0
:0c2ef40041f808bd941000207811002067
:020000040000fa
:102f0000022a70b5044616461d461ad043689b0631
:102f100017d441b9002d08bf4ff4806505f10800b2
:102f2000fef74cf901466368012e43f0200363600d
:102f3000c4e9021514bfff230a2384f83430024b7e
:0c2f4000e362002070bd00bfc52500004a
:020000040000fa
:102f4c0010b50278202a034600f10100f9d0a2f155
:102f5c0009010429f5d92b2a07d02d2a11d10121d9
:102f6c000133013b00200a2403e00021f8e7604311
:102f7c00801a13f8012f303a092af8d901b94042c6
:062f8c0010bd0021ede77d
:020000040000fa
:022f9200fee758
:020000040000fa
:102f9400d0b110b40446c9b1084421460c4a644275
:102fa400137e13f0010ffbd0536803f00703012bca
:102fb40014bf0b7834f81130936201318142efd1a0
:102fc40001205df8044b7047002070470120f8e7aa
:042fd40000040043b2
:020000040000fa
:102fd800434d443e20000000454e440d0a000000c9
:102fe800414f4b0d0a434d443e2000005265626f2d
:102ff8006f74696e670d0a005265626f6f742061a5
:103008006674657220466163746f727920526573c5
:0430180065740d0ac4
:020000040000fa
:10301c0010b5054c227832b9044b13b10448aff308
:10302c0000800123237010bd2c1000200000000034
:10303c000000000008b5034b1bb103490348aff374
:10304c00008008bd000000003010002000000000cf
:020000040000fa
:10305c0070b40d4b5e681b6813f0010f12d00b4b54
:10306c0003fb00f0084b9b6860b10021064c013655
:10307c00a2689a4292bf9b1ab51a5b19194413465f
:10308c008842f5d870bc704710e000e0c0d4010055
:020000040000fa
:10309c000c4a036810b5546a0b4a591e121b8a421b
:1030ac000ad22bb1094b0c221a604ff0ff3010bd25
:1030bc00102202600020fae7173323f00f0303609d
:1030cc00f8e700bf2c0f0020efffff7f70100020ef
:020000040000fa
:1030dc0010b44c68a40602460b4603d45df8044bae
:1030ec0000f06ab891f93410c0b2814203d059692a
:1030fc009c6aa14205d3114618465df8044bfff7b4
:0e310c0085be4c1c5c610a705df8044b704778
:020000040000fa
:10311a0038b5436813f4807f0446154610d0036916
:10312a0040699a4228bf1d462a4600f00efc626991
:10313a005319636123695b1b23610023535538bd0f
:0a314a00db06fcd400f0adfbf9e752
:020000040000fa
:103154002de9f04180460e4600240a4fbd6801e087
:10316400b44209d2a8470028fad03b6818f80400f2
:1031740098470134e4b2f3e7a8470028fcd0bde83f
:08318400f08100bf9c36000041
:020000040000fa
:10318c0030b50c4a002312f8134024b902eb430368
:10319c005b78184630bd01680d78a54209bf02eb7b
:1031ac00430301335b78013114bfdbb201600a2b9e
:0831bc00e9d9eee780370000bd
:020000040000fa
:1031c40007b54a68c0b2d2050b468df8070006d58c
:1031d4004a69511c5961107003b05df804fb012267
:1031e4000df10701184600f05ffb10b19df80700d0
:0831f400f2e74ff0ff30efe7b6
:020000040000fa
:1031fc0000090138202813d9b0f5007f05d2094bfe
:10320c0003ebd00010f8040c7047b0f5e05f06d863
:10321c00044b03ebd01010f8040c103070473f2017
:08322c00704700bfc02900003b
:020000040000fa
:103234000a4b0b4a1a604ff622029a814ff440322d
:103244005a601a46d369002bfcd1044a136843f030
:1032540002031360d369002bfcd1704700040043c0
:043264000401104011
:020000040000fa
:10326800444953434f4e4e4543540000535452452e
:10327800414d5f4f50454e004f54415f52455100fc
:103288004f54415f5354415254000000434f4e4e37
:043298004543540056
:020000040000fa
:10329c0000b583b0094b93e8030000908df804103f
:1032ac000748242303704370837005236a46032167
:1032bc00fef70afe03b05df804fb00bfd82f000038
:0432cc00ec0f0020e3
:020000040000fa
:1032d00030b400eb4004094b03eb84031b899bb221
:1032e000834201d030bc7047044b44002518ad0028
:1032f0005951204403eb80035a60f3e7140b00207c
:020000040000fa
:103300000a4b5b8b13f0070f0ed0084b80221a7606
:1033100007225a831b7e13f0040f05d0034b9a6ad1
:103320001a7e12f0040ffad1704700bf0004004368
:020000040000fa
:1033300038b50a4c65690120a847e4690120a04717
:103340000020a847c820a047044dec68a04710b152
:103350006b689847fae7012038bd00bf9c36000033
:020000040000fa
:1033600008b50020fff7a6fd002206490f20fff751
:10337000afff054800f046f9044b00221a70fcf735
:1033800083fffce7093a0000e415000078100020f4
:020000040000fa
:103390002de9f843002580460e4617462c4601f1dc
:1033a0000409bc4202db2846bde8f88359f8342002
:1033b00056f83410404600f0b7f901340544f0e700
:020000040000fa
:1033c00070b505462c68e30701d500200fe02046c4
:1033d000fff714ff064600f097f92868a042f1d1e4
:1033e00020f00100281a3146fff7cafb012070bd0a
:020000040000fa
:1033f0002de9f843002580460e4617462c4601f17c
:103400000409bc4202db2846bde8f88359f83420a1
:1034100056f83410404600f0a5f901340544f0e7b1
:020000040000fa
:1034200053b94ab9002908bf00281cbf4ff0ff312b
:103430004ff0ff3000f01cbbadf1080c6de904ce7d
:10344000fdf716fcddf804e0dde9022304b0704767
:020000040000fa
:10345000426822f00102531a102b30b40dd94418df
:1034600041f0010543f0010345506360835045601e
:0e34700004f1080030bcfef7dbb930bc704739
:020000040000fa
:02347e00fee767
:020000040000fa
:1034800000b1704708b500f0bdf901460448fef7e9
:1034900061ff044b1860044b01221a7008bd00bf85
:0c34a000d40b00205c10002085100020e0
:020000040000fa
:1034ac0010b5fef769fb58b1fdf73afd0446b0f1d3
:1034bc00ff3ff9d0c1b2044800f0fcf8204610bd23
:0c34cc004ff0ff34fae700bfd4370000d7
:020000040000fa
:1034d80030b462b1084b1c6843181044014413f817
:1034e800012b42ea04248b42f9d1034b1c60024ba6
:0c34f800186830bc704700bf6010002056
:020000040000fa
:1035040070b505466c68e30701d500200de0204640
:10351400fff772fe064600f0f5f86b68a342f1d19e
:0c35240028463146fff72afb012070bd4d
:020000040000fa
:10353000074b1968024609b9064919601868064917
:1035400002448a4294bf1a604ff0ff30704700bfb8
:0c35500074100020881100208813002057
:020000040000fa
:10355c0070b50c785cb102461378104601320bb989
:10356c00184604e09c42f7d10123cd5c05b970bd2f
:0a357c00c65cae42f0d10133f7e760
:020000040000fa
:10358600802910db812901dd83290cd113680733db
:1035960023f0070303f108011160d3e90023c0e912
:0a35a6000023012070470020704749
:020000040000fa
:1035b00070b5002902fb01f614460d4618bf1446eb
:1035c00001463246184608bf002400f06ff98642d3
:0a35d00018bfb0fbf5f4204670bdf3
:020000040000fa
:0235da00fee70a
:020000040000fa
:1035dc0008b5074b4ff400425a61064bd3f8b43090
:1035ec002bb1044bd3f8b800d3f8b430984708bdce
:0835fc0000280040140b002020
:020000040000fa
:1036040010b5084c2368196800f06af8002807db35
:1036140023680a20196800f011fac00f404210bd57
:083624000120fbe778110020f2
:020000040000fa
:10362c0090f948305a1e1343426880f8483012f023
:10363c0004031bbf42f010024260c0e90f334ff08d
:08364c00ff3008bf184670476b
:020000040000fa
:10365400054a0023136093600449516006211160f8
:10366400034a93601360704710e000e0bfd4010088
:0436740048100020da
:020000040000fa
:1036780008b5064b5868064a12689a6801329a607b
:103688001b6813b1014b1b68984708bd4810002000
:0436980010e000e05e
:020000040000fa
:10369c00313a0000293a0000393a0000b9390000eb
:1036ac003f210000653800002f2c00004937000036
:0436bc006d1300008a
:020000040000fa
:1036c0000fb407b5064b04aa1b6852f8041b186810
:1036d000019200f063f803b05df804eb04b07047aa
:0436e000781100203d
:020000040000fa
:1036e40070b50e46054600f055f9334604460246c9
:1036f40001212846fff75aff001b18bf4ff0ff3087
:0237040070bd96
:020000040000fa
:02370600fee7dc
:020000040000fa
:10370800064b013053f830203ab9c100a1f1080244
:103718001a44194443f830204a60704708090020c9
:020000040000fa
:1037280038b550b952b10c46012529462046fff755
:0e373800cffa0028f9d0012000e0002038bdb3
:020000040000fa
:02374600fee79c
:020000040000fa
:10374800034638b1044800fb03f018b1013800bf44
:0c3758000028fbd1704700bfc0d4010066
:020000040000fa
:1037640038b50d461446012801d0204638bd2146ff
:0c3774002846fff70dfc0028f9d0f6e70e
:020000040000fa
:1037800068076c094c836a9074a07ac000806888ce
:0c37900000846c820081286e696c2900a6
:020000040000fa
:10379c0013b50446019201aafdf7eaf8636813f029
:0c37ac00100f18bf4ff0ff3002b010bd2e
:020000040000fa
:1037b8000eb403b503aa52f8041b019200f026f9cf
:0a37c80002b05df804eb03b0704797
:020000040000fa
:0237d200fee710
:020000040000fa
:1037d400486561727472617465203d2025642062bd
:0837e400706d20090d0a0000c0
:020000040000fa
:1037ec00044a9368d06883423ebf024a12699b1810
:0837fc00181a70476c0f002041
:020000040000fa
:10380400044bd86a9b6a984282bf024a126b9b1887
:08381400181a70476c0f002028
:020000040000fa
:10381c00044b93f8342083f8340083f83c101046a2
:08382c00704700bf6c0f002083
:020000040000fa
:10383400044a9368d06883423ebf024a12699b18c7
:08384400181a7047ac0f0020b8
:020000040000fa
:10384c00044bd86a9b6a984282bf024a126b9b183f
:08385c00181a7047ac0f0020a0
:020000040000fa
:1038640018b1044b40225a617047024b40229a61be
:08387400704700bf0080004115
:020000040000fa
:10387c0000b583b08df8070001210df10700fef7ac
:08388c004df803b05df804fbe8
:020000040000fa
:1038940010b50446fff7c8fe28b9a368e268c4e976
:0838a40005331344a36210bdbb
:020000040000fa
:1038ac0010b4c46a1cb123465df8044b1847006879
:0838bc005df8044bfff750bf5b
:020000040000fa
:1038c4000068002808b501da002008bdfff72efec5
:0638d400431cfad1f8e7e5
:020000040000fa
:0238da00704735
:020000040000fa
:1038dc0010b5034b1c69fff783ff013c201a10bd88
:0438ec006c0f00203d
:020000040000fa
:1038f00010b5034b1c69fff79dff013c201a10bd5a
:04390000ac0f0020e8
:020000040000fa
:10390400034b00229a601a6842f001021a60704761
:0439140010e000e0df
:020000040000fa
:1039180010b5034c01212046fef796fc207810bd17
:0439280080100020eb
:020000040000fa
:10392c00524e42443435315f48454152545f524106
:04393c0054450000ee
:020000040000fa
:1039400008b500f081f8024b1860586008bd00bf50
:0439500054100020ef
:020000040000fa
:1039540010b500239a4200d110bdcc5cc45401338d
:02396400f8e782
:020000040000fa
:023966007047a8
:020000040000fa
:10396800024b40f204521a80704700bf00400041e9
:020000040000fa
:1039780000294ff480630cbf02220022fff7bcba73
:020000040000fa
:1039880002440346934200d1704703f8011bf9e74c
:020000040000fa
:1039980003461a46013311780029fad1101a7047e4
:020000040000fa
:1039a80008b5fff7c9ff00f063f800f061f808bd3b
:020000040000fa
:0e39b80008b5fff747ff003018bf012008bd1b
:020000040000fa
:0e39c60008b500f02af8b0fa80f0400908bdfc
:020000040000fa
:0e39d400a0f14103192b98bf40f0200070476e
:020000040000fa
:0e39e200a0f16103192b98bf00f05f00704741
:020000040000fa
:0c39f00008b1014a906370476c0f002082
:020000040000fa
:0c39fc00014b1862596270476c0f0020ec
:020000040000fa
:0c3a0800014b01221a7070478d10002045
:020000040000fa
:0c3a140013460a466ff00041fff7d4b9da
:020000040000fa
:083a200008b5fff707ff08bd20
:020000040000fa
:083a280008b5fff775ff08bdaa
:020000040000fa
:083a300008b5fff723ff08bdf4
:020000040000fa
:083a380008b5fff7c4ff08bd4b
:020000040000fa
:083a400008b5fff74bfb08bdc0
:020000040000fa
:083a480000487047fc1000204b
:020000040000fa
:073a5000286e756c6c290063
:020000040000fa
:063a58000068fff783bec9
:020000040000fa
:063a5e004ff0ff3070473d
:020000040000fa
:043a6400fef7f0bebb
:020000040000fa
:043a68000020704783
:020000040000fa
:043a6c00002070477f
:020000040000fa
:043a7000704700bfdc
:020000040000fa
:043a74000020704777
:020000040000fa
:043a780070477047dc
:020000040000fa
:0200000400807a
:044000003912003c35
:020000040000fa
:0200000400807a
:044004008000a82a66
:020000040000fa
:0200000400807a
:04400800ffffffffb8
:00000001FF
